:020000040800F2
:1000000000000220AD0E0008850D00088B0D0008D1
:10001000910D0008970D00089D0D000800000000DC
:1000200000000000000000000000000041A00008E7
:10003000A30D00080000000091A20008C17C000888
:10004000FD0E0008FD0E0008FD0E0008FD0E000864
:10005000FD0E0008FD0E0008FD0E0008FD0E000854
:10006000FD0E0008FD0E0008FD0E0008FD0E000844
:10007000FD0E0008FD0E0008FD0E0008FD0E000834
:10008000FD0E0008FD0E0008FD0E0008FD0E000824
:10009000FD0E0008FD0E0008FD0E0008FD0E000814
:1000A000FD0E0008FD0E0008FD0E0008FD0E000804
:1000B000FD0E0008FD0E0008FD0E0008FD0E0008F4
:1000C000FD0E0008FD0E0008FD0E0008FD0E0008E4
:1000D000FD0E0008FD0E0008FD0E0008FD0E0008D4
:1000E000FD0E0008FD0E0008FD0E0008FD0E0008C4
:1000F000FD0E0008FD0E0008FD0E0008FD0E0008B4
:10010000FD0E0008FD0E0008FD0E0008FD0E0008A3
:10011000FD0E0008FD0E0008B10D0008FD0E0008E0
:10012000FD0E0008FD0E0008FD0E0008FD0E000883
:10013000FD0E00080000000000000000FD0E000899
:10014000FD0E0008FD0E0008FD0E0008C50D00089C
:10015000FD0E0008FD0E0008FD0E0008FD0E000853
:10016000FD0E0008FD0E0008FD0E0008FD0E000843
:10017000FD0E0008FD0E0008000000000000000059
:08018000FD0E0008FD0E000851
:1001900010B5054C237833B9044B13B10448AFF3C1
:1001A00000800123237010BD6401002000000000C6
:1001B000E8B7000808B5034B1BB103490348AFF388
:1001C000008008BD0000000068010020E8B70008BA
:1001D000034613F8012B002AFBD1181A0138704787
:1001E00053B94AB9002908BF00281CBF4FF0FF319E
:1001F0004FF0FF3000F074B9ADF1080C6DE904CE9A
:1002000000F006F8DDF804E0DDE9022304B07047F1
:100210002DE9F047089D04468E46002B4DD18A42B9
:10022000944669D9B2FA82F252B101FA02F3C2F1EC
:10023000200120FA01F10CFA02FC41EA030E94407D
:100240004FEA1C48210CBEFBF8F61FFA8CF708FB9E
:1002500016E341EA034306FB07F199420AD91CEB76
:10026000030306F1FF3080F01F81994240F21C81A8
:10027000023E63445B1AA4B2B3FBF8F008FB1033F0
:1002800044EA034400FB07F7A7420AD91CEB040425
:1002900000F1FF3380F00A81A74240F207816444F5
:1002A000023840EA0640E41B00261DB1D44000237A
:1002B000C5E900433146BDE8F0878B4209D9002DDE
:1002C00000F0EF800026C5E9000130463146BDE868
:1002D000F087B3FA83F6002E4AD18B4202D38242D2
:1002E00000F2F980841A61EB030301209E46002D81
:1002F000E0D0C5E9004EDDE702B9FFDEB2FA82F2D6
:10030000002A40F09280A1EB0C014FEA1C471FFA33
:100310008CFE0126200CB1FBF7F307FB131140EA1A
:1003200001410EFB03F0884208D91CEB010103F1E7
:10033000FF3802D2884200F2CB804346091AA4B2A9
:10034000B1FBF7F007FB101144EA01440EFB00FE7D
:10035000A64508D91CEB040400F1FF3102D2A645E2
:1003600000F2BB800846A4EB0E0440EA03409CE781
:10037000C6F12007B34022FA07FC4CEA030C20FA2E
:1003800007F401FA06F31C43F9404FEA1C4900FA4E
:1003900006F3B1FBF9F8200C1FFA8CFE09FB1811CB
:1003A00040EA014108FB0EF0884202FA06F20BD93E
:1003B0001CEB010108F1FF3A80F08880884240F28E
:1003C0008580A8F102086144091AA4B2B1FBF9F0D2
:1003D00009FB101144EA014100FB0EFE8E4508D9CD
:1003E0001CEB010100F1FF346CD28E456AD9023852
:1003F000614440EA0840A0FB0294A1EB0E01A14237
:10040000C846A64656D353D05DB1B3EB080261EBA4
:100410000E0101FA07F722FA06F3F1401F43C5E97E
:10042000007100263146BDE8F087C2F12003D840B4
:100430000CFA02FC21FA03F3914001434FEA1C47F6
:100440001FFA8CFEB3FBF7F007FB10360B0C43EAE8
:10045000064300FB0EF69E4204FA02F408D91CEB98
:10046000030300F1FF382FD29E422DD90238634496
:100470009B1B89B2B3FBF7F607FB163341EA034136
:1004800006FB0EF38B4208D91CEB010106F1FF3885
:1004900016D28B4214D9023E6144C91A46EA00467C
:1004A00038E72E46284605E70646E3E61846F8E60E
:1004B0004B45A9D2B9EB020864EB0C0E0138A3E757
:1004C0004646EAE7204694E74046D1E7D0467BE738
:1004D000023B614432E7304609E76444023842E7B0
:1004E000704700BF90B587B000AF786039603B6857
:1004F000DB0FFB75FB7D002B02D03B685B4200E00D
:100500003B683B610A21386900F08DFAF860FA7D9A
:10051000FB68D41807F1080318460AF081FE07F1BA
:1005200008032D22214678680AF0E6FE07F1080349
:1005300018460AF076FEFB7D194678680AF0EDFE53
:1005400003463A69F968184600F0ACFA00BF7868CB
:100550001C37BD4690BD000080B500AF00F0D0FC58
:1005600000F044F800F0B8F800F006F90AF03EF99F
:1005700007F0C0FB114A0021114807F005FC0346B3
:10058000104A1360104A0021104807F0FDFB034693
:100590000F4A13600F4A00210F4807F0F5FB03468E
:1005A0000E4A13600E4A00210E4807F0EDFB034689
:1005B0000D4A136007F0C2FBFEE700BFC4B8000895
:1005C000B109000880010020E8B80008C50900084A
:1005D000840100200CB90008E5090008880100200A
:1005E00030B90008F1070008E401002080B594B09C
:1005F00000AF07F120033022002118460AF042FF25
:1006000007F10C0300221A605A609A60DA601A61DE
:100610000023BB602E4B1B6C2D4A43F080531364A8
:100620002B4B1B6C03F08053BB60BB6800237B60CB
:10063000284B1B68274A43F480431360254B1B68F3
:1006400003F480437B607B6803233B624FF4803379
:100650007B620123FB6210233B630223BB634FF4E5
:100660008003FB6304233B6448237B640223BB6455
:100670000323FB6407F12003184602F0D5F9034673
:10068000002B14BF01230023DBB2002B01D000F0AC
:10069000C5F90F23FB6000233B6100237B6100232E
:1006A000BB610023FB6107F10C030021184602F037
:1006B00033FC0346002B14BF01230023DBB2002BC5
:1006C00001D000F0ABF900BF5037BD4680BD00BF80
:1006D000003802400070004080B588B000AF07F1DC
:1006E0000C0300221A605A609A60DA601A610023D3
:1006F000BB601F4B1B6B1E4A43F0800313631C4BF4
:100700001B6B03F08003BB60BB6800237B60184B4E
:100710001B6B174A43F001031363154B1B6B03F06C
:1007200001037B607B6800233B60114B1B6B104A0D
:1007300043F0020313630E4B1B6B03F002033B6099
:100740003B68002220210B4800F0BEFE2023FB6006
:1007500001233B6100237B610023BB6107F10C0394
:100760001946044800F014FD00BF2037BD4680BD87
:10077000003802400004024080B500AF1A4B1B4A0B
:100780001A60194B4FF482725A60174B00229A601C
:10079000154B0022DA60144B00221A61124B002222
:1007A0005A61114B4FF400729A610F4B0022DA61CB
:1007B0000D4B00221A620C4B00225A620A4B002297
:1007C0009A62094B0A22DA62074802F0E3FD034607
:1007D000002B14BF01230023DBB2002B01D000F05B
:1007E0001DF900BF80BD00BF8C010020003001401A
:1007F00090B5A9B000AF78603B23FB7207F10B0105
:100800000A230122654802F04EFE07F10C0140F672
:10081000B8330622614802F082FF034687F89B3016
:1008200097F89B30032B20D100F0B4F9044607F170
:100830002C0318460AF0F4FC07F12C0207F114030C
:10084000574918460AF092FD07F11403194620464D
:1008500000F08AF907F1140318460AF056FD07F173
:100860002C0318460AF0DDFC92E097F89B30002B31
:100870006ED10023C7F89C30D7F89C30052B46DC9E
:1008800000F088F9044607F10C02D7F89C301344B5
:100890001B781A4607F1300311461846FFF722FE6F
:1008A00007F130031946204600F05EF907F13003E6
:1008B00018460AF02AFDD7F89C3003F00103002BFC
:1008C0001FD000F067F9044607F1600318460AF0EC
:1008D000A7FC07F1600207F14803324918460AF005
:1008E00045FD07F148031946204600F03DF907F1A0
:1008F000480318460AF009FD07F1600318460AF09C
:1009000090FCD7F89C300133C7F89C30B4E700F076
:1009100041F9044607F17C0318460AF081FC07F10F
:100920007C0207F16403204918460AF01FFD07F115
:1009300064031946204600F017F907F164031846CE
:100940000AF0E3FC07F17C0318460AF06AFC1FE09A
:1009500000F020F9044607F1980318460AF060FCFD
:1009600007F1980207F18003104918460AF0FEFCCF
:1009700007F180031946204600F0F6F807F18003DE
:1009800018460AF0C2FC07F1980318460AF049FC21
:100990004FF47A7007F08AFA30E700BF8C0100202C
:1009A00048B8000854B8000858B800085CB80008F7
:1009B00080B582B000AF78604FF47A7007F076FAB5
:1009C000FAE7000080B582B000AF786020210448CB
:1009D00000F093FD4FF47A7007F068FAF6E700BF75
:1009E0000004024080B582B000AF78604FF4FA6036
:1009F00007F05CFAFAE7000080B582B000AF7860DB
:100A00007B681B68044A934201D100F09BFA00BF47
:100A10000837BD4680BD00BF0010004080B400AF65
:100A200072B600BFFEE780B487B000AF786039606F
:100A300001237B613B6803FB03F33B613A683B693D
:100A400002FB03F3FB603A68FB6802FB03F3BB6045
:100A50003B687A689A4201D27B691DE07A683B69FB
:100A60009A4202D27B69013316E07A68FB689A42A7
:100A700002D27B6902330FE07A68BB689A4202D2E5
:100A80007B69033308E07A68BB68B2FBF3F37B60F1
:100A90007B6904337B61DBE718461C37BD465DF894
:100AA000047B704780B489B000AFF860B9607A60A9
:100AB000BB68013BFB617B68632B25D97A68224BBD
:100AC000A3FB02135B09642101FB03F3D31A5B0050
:100AD000BB617B681C4AA2FB03235B097B60BB698B
:100AE0005A1CF968FB690B4418498A5C1A70FB6947
:100AF000013BFA6813441549BA690A4412781A701E
:100B0000FB69023BFB61D6E77B68092B10D97B6848
:100B10005B007B617B695A1CFB6801330B498A5C73
:100B20001A700A4A7B6913441A78FB681A7005E048
:100B30007B68DBB23033DAB2FB681A7000BF24374F
:100B4000BD465DF8047B70471F85EB5154B9000822
:100B500080B400AF034B1B681846BD465DF8047BAC
:100B6000704700BFE801002090B583B000AF786007
:100B7000396038680AF0D4FB044638680AF0CBFBC9
:100B800003469BB21946204609F0EEFE00BF0C3723
:100B9000BD4690BD80B500AFFFF7DAFF03461846AB
:100BA00080BD000080B582B000AF00237B60124B97
:100BB0005B6C114A43F4804353640F4B5B6C03F44A
:100BC00080437B607B6800233B600B4B1B6C0A4AB5
:100BD00043F080531364084B1B6C03F080533B605D
:100BE0003B6800220F216FF0010000F0A7FA00BF60
:100BF0000837BD4680BD00BF0038024080B58AB0CE
:100C000000AF786007F1140300221A605A609A60FE
:100C1000DA601A617B681B68194A93422BD1002362
:100C20003B61184B5B6C174A43F480535364154B7C
:100C30005B6C03F480533B613B690023FB60114B09
:100C40001B6B104A43F0010313630E4B1B6B03F045
:100C50000103FB60FB68E0237B610223BB6100238F
:100C6000FB6103233B6205237B6207F114031946F2
:100C7000054800F08DFA00BF2837BD4680BD00BF93
:100C800000300140003802400000024080B58EB0C4
:100C900000AF78600023FB620023BB620023FB608F
:100CA000334B1B6C324A43F010031364304B1B6C04
:100CB00003F01003FB60FB6807F1100207F1140357
:100CC0001146184602F034FB3B6AFB62FB6A002BBC
:100CD00003D102F019FB786304E002F015FB034630
:100CE0005B007B637B6B234AA2FB03239B0C013BD2
:100CF000BB62214B214A1A601F4B40F2E732DA6097
:100D00001D4ABB6A53601C4B00221A611A4B002219
:100D10009A60194B00229A61174803F0E3F80346E2
:100D200087F8333097F83330002B1BD1124803F08B
:100D300033F9034687F8333097F83330002B11D15D
:100D4000362000F017FA7B680F2B08D8002279684C
:100D5000362000F0F3F90A4A7B68136002E00123B1
:100D600087F8333097F8333018463837BD4680BDA2
:100D70000038024083DE1B43EC01002000100040DD
:100D80000400002080B400AFFEE780B400AFFEE7AF
:100D900080B400AFFEE780B400AFFEE780B400AFE0
:100DA000FEE780B400AF00BFBD465DF8047B70472E
:100DB00080B500AF024803F05FF900BF80BD00BFFF
:100DC000EC01002080B500AF024800F000FD00BF3C
:100DD00080BD00BF2C61002080B400AF0123184605
:100DE000BD465DF8047B704780B582B000AF786087
:100DF00039600AF0FDFA034616221A604FF0FF33FD
:100E000018460837BD4680BD80B582B000AF786017
:100E10004FF0FF317868FFF7E7FFFEE780B586B057
:100E200000AF7860144A154BD31A7B617B693B6134
:100E3000134B1B68002B02D1114B124A1A60104B46
:100E40001A687B6813443A699A4207D20AF0D0FACA
:100E500003460C221A604FF0FF3309E0084B1B6871
:100E6000FB60074B1A687B681344054A1360FB68F4
:100E700018461837BD4680BD00000220000400005F
:100E8000340200207068002080B400AF064BD3F815
:100E90008830054A43F47003C2F8883000BFBD466D
:100EA0005DF8047B704700BF00ED00E0DFF834D050
:100EB0000D480E490E4A002302E0D458C4500433B2
:100EC000C4188C42F9D30B4A0B4C002301E0136089
:100ED0000432A242FBD3FFF7D7FF0AF08FFAFFF7E5
:100EE0003BFB70470000022000000020640100204E
:100EF000ECBA0008640100206C680020FEE70000E6
:100F000080B500AF0E4B1B680D4A43F400731360AD
:100F10000B4B1B680A4A43F480631360084B1B6841
:100F2000074A43F480731360032000F0FCF80F209D
:100F3000FFF7ACFEFFF736FE0023184680BD00BF6A
:100F4000003C024080B400AF064B1B781A46064BAB
:100F50001B681344044A136000BFBD465DF8047B60
:100F6000704700BF080000203802002080B400AFA6
:100F7000034B1B681846BD465DF8047B704700BFF5
:100F80003802002080B584B000AF7860FFF7EEFF34
:100F9000B8607B68FB60FB68B3F1FF3F05D00A4B8C
:100FA0001B781A46FB681344FB6000BFFFF7DEFFA7
:100FB0000246BB68D31AFA689A42F7D800BF00BF4E
:100FC0001037BD4680BD00BF0800002080B485B04A
:100FD00000AF78607B6803F00703FB600C4BDB68B5
:100FE000BB60BA684FF6FF031340BB60FB681A0290
:100FF000BB68134343F0BF6343F40033BB60044A50
:10100000BB68D36000BF1437BD465DF8047B7047F2
:1010100000ED00E080B400AF044BDB681B0A03F076
:1010200007031846BD465DF8047B704700ED00E0FD
:1010300080B483B000AF0346FB7197F90730002BF3
:101040000BDBFB7903F01F02074997F907305B09B7
:10105000012000FA02F241F8232000BF0C37BD4600
:101060005DF8047B704700BF00E100E080B483B00E
:1010700000AF03463960FB7197F90730002B0ADB9C
:101080003B68DAB20C4997F907301201D2B20B442F
:1010900083F800230AE03B68DAB20849FB7903F0E1
:1010A0000F03043B1201D2B20B441A7600BF0C3777
:1010B000BD465DF8047B704700E100E000ED00E014
:1010C00080B489B000AFF860B9607A60FB6803F063
:1010D0000703FB61FB69C3F10703042B28BF04234B
:1010E000BB61FB690433062B02D9FB69033B00E0BB
:1010F00000237B614FF0FF32BB6902FA03F3DA434E
:10110000BB681A407B699A404FF0FF317B6901FA56
:1011100003F3D9437B680B40134318462437BD467D
:101120005DF8047B704780B582B000AF7860786866
:10113000FFF74CFF00BF0837BD4680BD80B586B0C5
:1011400000AF0346B9607A60FB7300237B61FFF751
:1011500061FF78617A68B9687869FFF7B1FF024684
:1011600097F90F3011461846FFF780FF00BF183778
:10117000BD4680BD80B582B000AF0346FB7197F9D4
:1011800007301846FFF754FF00BF0837BD4680BD43
:1011900080B489B000AF7860396000237B610023A0
:1011A0003B610023BB610023FB616BE10122FB6912
:1011B00002FA03F37B613B681B687A6913403B6169
:1011C0003A697B699A4240F05A813B685B6803F058
:1011D0000303012B05D03B685B6803F00303022B7C
:1011E00030D17B689B68BB61FB695B00032202FA1C
:1011F00003F3DB43BA691340BB613B68DA68FB6900
:101200005B0002FA03F3BA691343BB617B68BA69F6
:101210009A607B685B68BB610122FB6902FA03F399
:10122000DB43BA691340BB613B685B681B0903F091
:101230000102FB6902FA03F3BA691343BB617B68DD
:10124000BA695A603B685B6803F00303032B17D04D
:101250007B68DB68BB61FB695B00032202FA03F376
:10126000DB43BA691340BB613B689A68FB695B006A
:1012700002FA03F3BA691343BB617B68BA69DA60A7
:101280003B685B6803F00303022B23D1FB69DA0898
:101290007B68083253F82230BB61FB6903F0070317
:1012A0009B000F2202FA03F3DB43BA691340BB61D0
:1012B0003B681A69FB6903F007039B0002FA03F31A
:1012C000BA691343BB61FB69DA087B680832B96904
:1012D00043F822107B681B68BB61FB695B0003223B
:1012E00002FA03F3DB43BA691340BB613B685B68F6
:1012F00003F00302FB695B0002FA03F3BA691343CC
:10130000BB617B68BA691A603B685B6803F4403371
:10131000002B00F0B4800023FB60604B5B6C5F4AE5
:1013200043F4804353645D4B5B6C03F48043FB6088
:10133000FB685B4AFB699B08023352F82330BB61B0
:10134000FB6903F003039B000F2202FA03F3DB4364
:10135000BA691340BB617B68524A93422BD07B68C9
:10136000514A934225D07B68504A93421FD07B68F4
:101370004F4A934219D07B684E4A934213D07B6800
:101380004D4A93420DD07B684C4A934207D07B680C
:101390004B4A934201D107230EE008230CE00623B9
:1013A0000AE0052308E0042306E0032304E0022307
:1013B00002E0012300E00023FA6902F00302920038
:1013C0009340BA691343BB613549FB699B080233FB
:1013D000BA6941F823203B4B9B68BB613B69DB4307
:1013E000BA691340BB613B685B6803F48013002B50
:1013F00003D0BA693B691343BB61324ABB6993604E
:10140000304BDB68BB613B69DB43BA691340BB61AE
:101410003B685B6803F40013002B03D0BA693B6997
:101420001343BB61274ABB69D360264B5B68BB6132
:101430003B69DB43BA691340BB613B685B6803F4FB
:101440000033002B03D0BA693B691343BB611D4ACB
:10145000BB6953601B4B1B68BB613B69DB43BA69CB
:101460001340BB613B685B6803F48033002B03D0FF
:10147000BA693B691343BB61124ABB691360FB69DC
:101480000133FB61FB690F2B7FF690AE00BF00BFFD
:101490002437BD465DF8047B704700BF003802402A
:1014A00000380140000002400004024000080240F1
:1014B000000C0240001002400014024000180240DC
:1014C000001C0240003C014080B483B000AF786053
:1014D0000B467B8013467B707B78002B03D07A8889
:1014E0007B689A6103E07B881A047B689A6100BF7D
:1014F0000C37BD465DF8047B704780B485B000AF03
:1015000078600B467B807B685B69FB607A88FB6850
:1015100013401A04FB68D9437B880B401A437B684D
:101520009A6100BF1437BD465DF8047B7047F0B583
:101530008FB00AAF78607B68002B01D101230FE1E7
:101540007B681B68BB607B6893F8BD34DBB2002B03
:1015500006D17B68002283F8BC24786809F04CFB34
:101560007B68032283F8BD24BB68DB6B03F48073C4
:10157000002B02D17B6800221A617B681B68184629
:1015800003F073F87B681B683B607E686D4606F16C
:1015900010040FCC0FC50FCC0FC594E8030085E8ED
:1015A0000300331D0ECB386802F04AFF0346002BC0
:1015B00005D07B68022283F8BD240123D0E07B683C
:1015C0001B680021184603F061F80023FB734AE012
:1015D000FA7B79681346DB0013449B000B443D33D0
:1015E00001221A70FA7B79681346DB0013449B00D2
:1015F0000B443C33FA7B1A70FA7BFB7B98B2796818
:101600001346DB0013449B000B44443302461A800C
:10161000FA7B79681346DB0013449B000B4440338C
:1016200000221A70FA7B79681346DB0013449B0092
:101630000B44483300221A60FA7B79681346DB00BA
:1016400013449B000B444C3300221A60FA7B7968E8
:101650001346DB0013449B000B44543300221A60F2
:10166000FB7B0133FB73FA7B7B685B689A42AFD3E9
:101670000023FB7344E0FA7B79681346DB001344D4
:101680009B000B4403F27D2300221A70FA7B7968D9
:101690001346DB0013449B000B4403F51F73FA7BD6
:1016A0001A70FA7B79681346DB0013449B000B44E5
:1016B00003F5207300221A70FA7B79681346DB0069
:1016C00013449B000B4403F5227300221A60FA7B3B
:1016D00079681346DB0013449B000B4403F5237326
:1016E00000221A60FA7B79681346DB0013449B00E2
:1016F0000B4403F5257300221A60FB7B0133FB7357
:10170000FA7B7B685B689A42B5D37B681B683B6059
:101710007E686D4606F110040FCC0FC50FCC0FC5C7
:1017200094E8030085E80300331D0ECB386802F00F
:10173000F9FF0346002B05D07B68022283F8BD2405
:1017400001230DE07B68002283F838207B680122AA
:1017500083F8BD247B681B68184604F048F9002311
:1017600018461437BD46F0BD80B584B000AF786030
:101770007B681B68FB607B6893F8BC34012B01D14C
:10178000022320E07B68012283F8BC247B689B6AEB
:10179000012B09D17B689B69012B05D0FB689B6BF2
:1017A00043F48032FB689A637B681B68184602F03A
:1017B0004BFF7B681B68184604F0F8F87B68002232
:1017C00083F8BC24002318461037BD4680BD90B571
:1017D0008DB000AF78607B681B683B623B6AFB6141
:1017E0007B681B68184604F0B6F90346002B40F0EE
:1017F0008A847B681B68184604F01AF90346002B9C
:1018000000F08084FB6903F500639B681B0AC3F347
:101810000D027B68C3F8FC247B681B68184604F043
:1018200007F9034603F00203022B07D17B681B680C
:101830005A697B681B6802F002025A617B681B6868
:10184000184604F0F5F8034603F01003102B61D19D
:101850007B681B689A697B681B6822F010029A619A
:101860003B6A1B6ABB61BB6903F00F021346DB00D6
:1018700013449B0003F51E737A68134404337B61A1
:10188000BB695B0C03F00F03022B24D1BA6947F646
:10189000F0731340002B35D07B691969BB691B09B4
:1018A0009BB2C3F30A039BB21A46386A03F02CFFBB
:1018B0007B691A69BB691B09C3F30A031A447B6974
:1018C0001A617B691A6ABB691B09C3F30A031A44CC
:1018D0007B691A6216E0BB695B0C03F00F03062BF1
:1018E00010D17B6803F2C44308221946386A03F01A
:1018F0000BFF7B691A6ABB691B09C3F30A031A440D
:101900007B691A627B681B689A697B681B6842F076
:1019100010029A617B681B68184604F089F8034638
:1019200003F40023B3F5002F40F0A78000237B626F
:101930007B681B68184604F08EF8B86299E0BB6AB1
:1019400003F00103002B00F08E807B681B687A6A2D
:10195000D2B21146184604F0B2F838613B6903F080
:101960000103002B0CD07B6A5A01FB69134403F579
:1019700030631A4601239360796A786800F0C2FEEA
:101980003B6903F00803002B0CD07B6A5A01FB690A
:10199000134403F530631A4608239360796A786824
:1019A00000F098FF3B6903F01003002B08D07B6A1E
:1019B0005A01FB69134403F530631A461023936000
:1019C0003B6903F00203002B30D03B6A5B6903F0F4
:1019D0008003802B09D1FB6903F500635B68FA691A
:1019E00002F5006243F4806353607A6A1346DB00B9
:1019F00013449B0003F51E737A68134404337B6120
:101A00007B69DB78012B08D17B690022DA707B6A65
:101A1000DBB21946786809F0F5F97B6A5A01FB696F
:101A2000134403F530631A46022393603B6903F0C5
:101A30002003002B08D07B6A5A01FB69134403F58D
:101A400030631A46202393603B6903F40053002B54
:101A500009D07B6A5A01FB69134403F530631A46C7
:101A60004FF4005393607B6A01337B62BB6A5B086F
:101A7000BB62BB6A002B7FF462AF7B681B681846B1
:101A800003F0D6FF034603F48023B3F5802F40F024
:101A9000DB807B681B68184603F0F7FFB862002301
:101AA0007B62CDE0BB6A03F00103002B00F0C28033
:101AB0007B681B687A6AD2B21146184604F01DF89A
:101AC00038613B6903F00103002B57D07B6A03F0B8
:101AD0000F03012202FA03F3FB60FB6903F50063C5
:101AE0005A6BFB68DB43F96901F5006113404B63F6
:101AF0007B6A5A01FB69134403F510631A460123FC
:101B000093607B681B69012B32D179687A6A13462E
:101B1000DB0013449B000B444C33196878687A6AE5
:101B20001346DB0013449B00034448331B681944ED
:101B300078687A6A1346DB0013449B0003444C33F5
:101B400019607B6A002B13D179687A6A1346DB002F
:101B500013449B000B4454331B68002B08D17B6853
:101B600018687B6803F2C4431A46012104F024F884
:101B70007B6ADBB21946786809F0BFF83B6903F06D
:101B80000803002B08D07B6A5A01FB69134403F554
:101B900010631A46082393603B6903F01003002B7F
:101BA00008D07B6A5A01FB69134403F510631A4697
:101BB000102393603B6903F04003002B08D07B6A3D
:101BC0005A01FB69134403F510631A4640239360DE
:101BD0003B6903F00203002B23D0796A386A02F0D4
:101BE00005FF7A6A1346DB0013449B0038337A689A
:101BF000134404337B617B69DB78012B08D17B695B
:101C00000022DA707B6ADBB21946786809F00CF9B9
:101C10007B6A5A01FB69134403F510631A460223D9
:101C200093603B6903F08003002B03D0796A7868E6
:101C300000F0DBFC7B6A01337B62BB6A5B08BB6242
:101C4000BB6A002B7FF42EAF7B681B68184603F03D
:101C5000EFFE034603F00043B3F1004F22D1FB69CE
:101C600003F500635B68FA6902F5006223F0010383
:101C700053607B6893F8F434012B08D17B68002211
:101C800083F8F4240021786800F0C2FE02E078684E
:101C900009F0AAF87B681B685A697B681B6802F028
:101CA00000425A617B681B68184603F0C1FE034678
:101CB00003F40063B3F5006F12D1FB6903F5006311
:101CC0009B6803F00103012B02D1786809F066F8E4
:101CD0007B681B685A697B681B6802F400625A6162
:101CE0007B681B68184603F0A3FE034603F4805389
:101CF000B3F5805F40F0B780FB6903F500635B6874
:101D0000FA6902F5006223F0010353607B681B68E7
:101D10001021184602F06AFE0023FB6246E0FB6ACF
:101D20005A01FB69134403F510631A464FF67F33DB
:101D30009360FB6A5A01FB69134403F510631B6847
:101D4000FA6A5101FA690A4402F5106223F4001399
:101D50001360FB6A5A01FB69134403F530631A46AA
:101D60004FF67F339360FB6A5A01FB69134403F516
:101D700030631B68FA6A5101FA690A4402F530625D
:101D800023F400131360FB6A5A01FB69134403F543
:101D900030631B68FA6A5101FA690A4402F530623D
:101DA00043F000631360FB6A0133FB627B685B688E
:101DB000FA6A9A42B3D3FB6903F50063DB69FA69F7
:101DC00002F5006243F00113D3617B681B6B002BAB
:101DD00016D0FB6903F50063D3F88430FA6902F585
:101DE000006243F00B03C2F88430FB6903F5006323
:101DF0005B6CFA6902F5006243F00B03536415E073
:101E0000FB6903F500635B69FA6902F5006243F45C
:101E1000005343F02B035361FB6903F500631B6917
:101E2000FA6902F5006243F00B031361FB6903F5E5
:101E300000631B68FA6902F5006223F4FE63136015
:101E40007B6818687B681B69D9B27B6803F2C4435E
:101E50001A4603F0B1FE7B681B685A697B681B68F1
:101E600002F480525A617B681B68184603F0E0FD5B
:101E7000034603F40053B3F5005F24D17B681B686D
:101E8000184603F076FE7B681B68184602F02BFEAE
:101E900003461A467B68DA607B681C6801F028FA02
:101EA00001467B68DB68DBB21A46204602F02AFB5B
:101EB000786808F04AFF7B681B685A697B681B6872
:101EC00002F400525A617B681B68184603F0B0FDAB
:101ED000034603F00803082B0AD1786808F027FFAF
:101EE0007B681B685A697B681B6802F008025A61AC
:101EF0007B681B68184603F09BFD034603F08003D4
:101F0000802B22D13B6A9B6923F080023B6A9A6155
:101F100001237B6214E079687A6A1346DB0013447C
:101F20009B000B4403F27F231B78012B05D17B6AB6
:101F3000DBB21946786800F027FB7B6A01337B62CD
:101F40007B685B687A6A9A42E5D37B681B681846AF
:101F500003F06EFD034603F48013B3F5801F3BD1FD
:101F600001237B622BE07B6A5A01FB69134403F572
:101F700010631B68BB6179687A6A1346DB001344FF
:101F80009B000B4440331B78012B15D1BB69002B00
:101F900012DA79687A6A1346DB0013449B000B441B
:101FA0003F3301221A707B6ADBB263F07F03DBB23E
:101FB0001946786800F0E8FA7B6A01337B627B6837
:101FC0005B687A6A9A42CED37B681B685A697B68E1
:101FD0001B6802F480125A617B681B68184603F084
:101FE00027FD034603F40013B3F5001F55D1012369
:101FF0007B6245E07B6A5A01FB69134403F5306359
:102000001B68BB6179687A6A1346DB0013449B0046
:102010000B4403F520731B78012B2ED1BB69002BD9
:102020002BDABB6903F480327B68D3F8FC3403F00D
:1020300001039A4221D179687A6A1346DB0013447E
:102040009B000B4403F27F2301221A703B6A9B69B9
:1020500043F080023B6A9A613B6A5B6903F080034C
:10206000002B0AD1FB6903F500635B68FA6902F58E
:10207000006243F40073536007E07B6A01337B62C4
:102080007B685B687A6A9A42B4D37B681B685A693A
:102090007B681B6802F400125A617B681B68184653
:1020A00003F0C6FC034603F08043B3F1804F0AD12E
:1020B000786808F0CBFE7B681B685A697B681B68F0
:1020C00002F080425A617B681B68184603F0B0FC3E
:1020D000034603F00403042B15D17B681B685B687F
:1020E000BB61BB6903F00403002B02D0786808F0E1
:1020F000BBFE7B681B6859687B681B68BA690A432A
:102100005A6000E000BF3437BD4690BD80B582B054
:1021100000AF78600B46FB707B6893F8BC34012BF2
:1021200001D1022313E07B68012283F8BC247B6881
:10213000FA7883F838207B681B68FA7811461846CD
:1021400003F00EFC7B68002283F8BC2400231846B1
:102150000837BD4680BD80B584B000AF78600846C2
:1021600011461A460346FB700B463B801346BB7074
:102170000023FB7297F90330002B0FDAFB7803F092
:102180000F021346DB0013449B0038337A68134474
:102190000433FB60FB6801225A700FE0FB7803F008
:1021A0000F021346DB0013449B0003F51E737A688D
:1021B00013440433FB60FB6800225A70FB7803F081
:1021C0000F03DAB2FB681A703A88FB68DA60FB68C2
:1021D000BA781A71FB685B78002B04D0FB681B7817
:1021E0009AB2FB681A81BB78022B02D1FB680022ED
:1021F0005A717B6893F8BC34012B01D102230EE0A5
:102200007B68012283F8BC247B681B68F968184648
:1022100002F08EFC7B68002283F8BC24FB7A18460F
:102220001037BD4680BD80B584B000AF78600B46E6
:10223000FB7097F90330002B0FDAFB7803F00F02E5
:102240001346DB0013449B0038337A68134404338D
:10225000FB60FB6801225A700FE0FB7803F00F026D
:102260001346DB0013449B0003F51E737A68134486
:102270000433FB60FB6800225A70FB7803F00F0305
:10228000DAB2FB681A707B6893F8BC34012B01D179
:1022900002230EE07B68012283F8BC247B681B6864
:1022A000F968184602F0CCFC7B68002283F8BC2455
:1022B000002318461037BD4680BD80B586B000AFFC
:1022C000F8607A603B600B46FB72FB7A03F00F020A
:1022D0001346DB0013449B0003F51E73FA68134496
:1022E00004337B617B697A681A617B693A689A6119
:1022F0007B6900221A627B6900225A70FB7A03F024
:102300000F03DAB27B691A70FB681B69012B02D1DB
:102310007A687B695A61FB7A03F00F03002B09D1BD
:10232000FB681868FB681B69DBB21A46796902F022
:10233000ABFF08E0FB681868FB681B69DBB21A4654
:10234000796902F059FD002318461837BD4680BD53
:1023500080B483B000AF78600B46FB70FB7803F06D
:102360000F0279681346DB0013449B000B4403F50E
:1023700027731B6818460C37BD465DF8047B704711
:1023800080B586B000AFF8607A603B600B46FB72A8
:10239000FB7A03F00F021346DB0013449B00383333
:1023A000FA68134404337B617B697A681A617B693C
:1023B0003A689A617B6900221A627B6901225A702D
:1023C000FB7A03F00F03DAB27B691A70FB681B69B2
:1023D000012B02D17A687B695A61FB7A03F00F0303
:1023E000002B09D1FB681868FB681B69DBB21A4631
:1023F000796902F049FF08E0FB681868FB681B690F
:10240000DBB21A46796902F0F7FC00231846183748
:10241000BD4680BD80B584B000AF78600B46FB70D0
:10242000FB7803F00F027B685B689A4201D90123B5
:1024300050E097F90330002B0FDAFB7803F00F021E
:102440001346DB0013449B0038337A68134404338B
:10245000FB60FB6801225A700DE0FA781346DB003E
:1024600013449B0003F51E737A6813440433FB6026
:10247000FB6800225A70FB6801229A70FB7803F017
:102480000F03DAB2FB681A707B6893F8BC34012B37
:1024900001D102231EE07B68012283F8BC247B6803
:1024A0001B68F968184603F087F9FB7803F00F03FF
:1024B000002B0AD17B6818687B681B69D9B27B68DE
:1024C00003F2C4431A4603F077FB7B68002283F8CB
:1024D000BC24002318461037BD4680BD80B584B0AB
:1024E00000AF78600B46FB70FB7803F00F027B684F
:1024F0005B689A4201D9012342E097F90330002B2F
:102500000FDAFB7803F00F021346DB0013449B0045
:1025100038337A6813440433FB60FB6801225A7035
:102520000FE0FB7803F00F021346DB0013449B001F
:1025300003F51E737A6813440433FB60FB680022C2
:102540005A70FB6800229A70FB7803F00F03DAB22E
:10255000FB681A707B6893F8BC34012B01D102230D
:102560000EE07B68012283F8BC247B681B68F96855
:10257000184603F08FF97B68002283F8BC240023FF
:1025800018461037BD4680BD80B584B000AF786076
:102590000B46FB7097F90330002B0CDAFB7803F045
:1025A0000F021346DB0013449B0038337A68134450
:1025B0000433FB600CE0FB7803F00F021346DB00F2
:1025C00013449B0003F51E737A6813440433FB60C5
:1025D0007B681B68F968184602F0AEFF0346FB7281
:1025E000FB7A18461037BD4680BD80B58AB002AF71
:1025F000786039607B681B687B617B693B613A6806
:102600001346DB0013449B0038337A6813440433C9
:10261000FB60FB681A6AFB689B699A4201D9012337
:102620006CE0FB689A69FB681B6AD31AFB61FB6864
:10263000DB68FA699A4202D9FB68DB68FB61FB69D7
:1026400003339B08BB612BE0FB689A69FB681B6A3C
:10265000D31AFB61FB68DB68FA699A4202D9FB680E
:10266000DB68FB61FB6903339B08BB61FB6819698D
:102670003B68DAB2FB6998B27B681B69DBB20093F6
:102680000346786903F002F8FB681A69FB691A448B
:10269000FB681A61FB681A6AFB691A44FB681A62D4
:1026A0003B685A013B69134403F510639B699BB275
:1026B000BA699A4209D8FB681A6AFB689B699A4210
:1026C00003D2FB689B69002BBED1FB689A69FB684B
:1026D0001B6A9A4211D83B6803F00F03012202FAE9
:1026E00003F3BB603B6903F500635A6BBB68DB43D4
:1026F000396901F5006113404B6300231846203708
:10270000BD4680BD80B588B000AF786039607B6819
:102710001B68FB61FB69BB61FB693C3304331B68CD
:102720007B613B685A01BB69134403F530639B68C6
:102730003B617B681B69012B7BD13B6903F008037C
:10274000002B15D07B69614A934240F2B9803B6906
:1027500003F40043002B00F0B3803B685A01BB69CF
:10276000134403F530631A464FF400439360A7E027
:102770003B6903F02003002B09D03B685A01BB6979
:10278000134403F530631A462023936098E03B69B5
:1027900003F02803002B40F093807B694B4A93425F
:1027A0000FD93B6903F40043002B0AD03B685A0160
:1027B000BB69134403F530631A464FF4004393603A
:1027C0007EE03A681346DB0013449B0003F51E735A
:1027D0007A6813440433FB60FB68DA693B6859018B
:1027E000BB690B4403F530631B69C3F31203D21AB0
:1027F000FB681A623B68002B14D1FB689B69002BB5
:1028000009D17B6818687B6803F2C4431A4601212A
:1028100003F0D2F906E0FB681A69FB681B6A1A44E8
:10282000FB681A613B68DBB21946786808F04AFA1F
:1028300046E07B69264A934224D13B6903F4004376
:10284000002B0AD03B685A01BB69134403F530637F
:102850001A464FF40043936032E03B6903F02003D3
:10286000002B08D03B685A01BB69134403F5306361
:102870001A46202393603B68DBB21946786808F05B
:1028800021FA1DE03B68002B14D179683A681346A1
:10289000DB0013449B000B4403F525731B68002BDE
:1028A00008D17B6818687B6803F2C4431A4600218C
:1028B00003F082F93B68DBB21946786808F002FA47
:1028C000002318462037BD4680BD00BF0A30544F54
:1028D0000A31544F80B586B000AF786039607B68AC
:1028E0001B687B617B693B617B693C3304331B68FC
:1028F000FB603B685A013B69134403F530639B68F6
:10290000BB60FB68154A93420ED9BB6803F40043D1
:10291000002B09D03B685A013B69134403F530632F
:102920001A464FF400439360786808F0B9F9FB68E1
:102930000A4A93420CD97B681B69012B08D17B683A
:1029400018687B6803F2C4431A46012103F034F986
:10295000002318461837BD4680BD00BF0A30544FCB
:1029600080B485B000AF78600B46FB7013463B80A7
:102970007B681B685B6ABB60FB78002B07D13B88D8
:1029800019047B681B68BA680A439A6228E07B686E
:102990001B689B6A1B0CBA681344BB600023FB7363
:1029A0000DE07B681A68FB7B40339B0013445B6837
:1029B0001B0CBA681344BB60FB7B0133FB73FA7BCF
:1029C000FB78013B9A42ECD33B8818047B6819687A
:1029D000FB78013BBA68024340339B000B445A60CA
:1029E000002318461437BD465DF8047B704780B459
:1029F00083B000AF78600B467B807B681B687A8869
:102A00005A62002318460C37BD465DF8047B7047B8
:102A100080B483B000AF78600B46FB7000BF0C370A
:102A2000BD465DF8047B704780B586B000AF786026
:102A30007B68002B01D1012367E27B681B6803F0F0
:102A40000103002B75D0884B9B6803F00C03042B0B
:102A50000CD0854B9B6803F00C03082B12D1824BE2
:102A60005B6803F48003B3F5800F0BD17E4B1B68CA
:102A700003F40033002B5BD07B685B68002B57D1DD
:102A8000012342E27B685B68B3F5803F06D1764B59
:102A90001B68754A43F4803313601DE07B685B68F4
:102AA000B3F5A02F0CD1704B1B686F4A43F4802301
:102AB00013606D4B1B686C4A43F4803313600BE06A
:102AC000694B1B68684A23F480331360664B1B68AC
:102AD000654A23F4802313607B685B68002B13D066
:102AE000FEF744FA386108E0FEF740FA02463B6917
:102AF000D31A642B01D9032307E25B4B1B6803F451
:102B00000033002BF0D014E0FEF730FA386108E013
:102B1000FEF72CFA02463B69D31A642B01D9032332
:102B2000F3E1514B1B6803F40033002BF0D100E0BC
:102B300000BF7B681B6803F00203002B63D04A4B85
:102B40009B6803F00C03002B0BD0474B9B6803F0F2
:102B50000C03082B1CD1444B5B6803F48003002B4F
:102B600016D1414B1B6803F00203002B05D07B6894
:102B7000DB68012B01D00123C7E13B4B1B6823F02D
:102B8000F8027B681B69DB00374913430B603AE0AE
:102B90007B68DB68002B20D0344B01221A60FEF7E3
:102BA000E5F9386108E0FEF7E1F902463B69D31A1E
:102BB000022B01D90323A8E12B4B1B6803F002036E
:102BC000002BF0D0284B1B6823F0F8027B681B69B0
:102BD000DB00254913430B6015E0244B00221A60EB
:102BE000FEF7C4F9386108E0FEF7C0F902463B6918
:102BF000D31A022B01D9032387E11B4B1B6803F077
:102C00000203002BF0D17B681B6803F00803002B44
:102C100036D07B685B69002B16D0154B01221A60F9
:102C2000FEF7A4F9386108E0FEF7A0F902463B6917
:102C3000D31A022B01D9032367E10B4B5B6F03F01F
:102C40000203002BF0D01BE0094B00221A60FEF7B4
:102C50008DF938610EE0FEF789F902463B69D31A17
:102C6000022B07D9032350E10038024000004742FD
:102C7000800E4742884B5B6F03F00203002BEAD1C2
:102C80007B681B6803F00403002B00F0978000238F
:102C9000FB75814B1B6C03F08053002B0FD100237D
:102CA000BB607D4B1B6C7C4A43F0805313647A4BB2
:102CB0001B6C03F08053BB60BB680123FB75774B33
:102CC0001B6803F48073002B18D1744B1B68734A84
:102CD00043F480731360FEF749F9386108E0FEF7AA
:102CE00045F902463B69D31A022B01D903230CE1B3
:102CF0006A4B1B6803F48073002BF0D07B689B68E1
:102D0000012B06D1644B1B6F634A43F00103136729
:102D10001CE07B689B68052B0CD15F4B1B6F5E4AE8
:102D200043F0040313675C4B1B6F5B4A43F00103E2
:102D300013670BE0584B1B6F574A23F001031367CF
:102D4000554B1B6F544A23F0040313677B689B6841
:102D5000002B15D0FEF70AF938610AE0FEF706F9F4
:102D600002463B69D31A41F28832934201D90323C8
:102D7000CBE0494B1B6F03F00203002BEED014E0B5
:102D8000FEF7F4F838610AE0FEF7F0F802463B6916
:102D9000D31A41F28832934201D90323B5E03E4B66
:102DA0001B6F03F00203002BEED1FB7D012B05D13D
:102DB000394B1B6C384A23F0805313647B689B6942
:102DC000002B00F0A180344B9B6803F00C03082B10
:102DD0005CD07B689B69022B41D1314B00221A6089
:102DE000FEF7C4F8386108E0FEF7C0F802463B6918
:102DF000D31A022B01D9032387E0274B1B6803F06A
:102E00000073002BF0D17B68DA697B681B6A1A4378
:102E10007B685B6A9B011A437B689B6A5B08013B8A
:102E20001B041A437B68DB6A1B061B4913434B6078
:102E30001B4B01221A60FEF799F8386108E0FEF793
:102E400095F802463B69D31A022B01D903235CE0B3
:102E5000114B1B6803F00073002BF0D054E0104BB3
:102E600000221A60FEF782F8386108E0FEF77EF86B
:102E700002463B69D31A022B01D9032345E0064BD6
:102E80001B6803F00073002BF0D13DE07B689B6969
:102E9000012B07D1012338E00038024000700040C8
:102EA000600047421B4B5B68FB607B689B69012BA2
:102EB00028D0FB6803F480027B68DB699A4221D149
:102EC000FB6803F03F027B681B6A9A421AD1FA68DA
:102ED00047F6C07313407A68526A9201934211D147
:102EE000FB6803F440327B689B6A5B08013B1B0470
:102EF0009A4207D1FB6803F070627B68DB6A1B06AD
:102F00009A4201D0012300E0002318461837BD463D
:102F100080BD00BF0038024080B584B000AF78604B
:102F200039607B68002B01D10123CCE0684B1B6822
:102F300003F007033A689A420CD9654B3A68D2B25B
:102F40001A70634B1B6803F007033A689A4201D07A
:102F50000123B8E07B681B6803F00203002B20D03C
:102F60007B681B6803F00403002B05D0594B9B685A
:102F7000584A43F4E05393607B681B6803F00803EE
:102F8000002B05D0534B9B68524A43F46043936037
:102F9000504B9B6823F0F0027B689B684D491343BC
:102FA0008B607B681B6803F00103002B44D07B68B7
:102FB0005B68012B07D1474B1B6803F40033002BE0
:102FC00019D101237FE07B685B68022B03D07B680B
:102FD0005B68032B07D13F4B1B6803F00073002B8A
:102FE00009D101236FE03B4B1B6803F00203002B68
:102FF00001D1012367E0374B9B6823F003027B6814
:103000005B68344913438B60FDF7B0FFF8600AE05A
:10301000FDF7ACFF0246FB68D31A41F288329342B7
:1030200001D903234FE02B4B9B6803F00C027B6814
:103030005B689B009A42EBD1254B1B6803F00703AA
:103040003A689A420CD2224B3A68D2B21A70204B9C
:103050001B6803F007033A689A4201D0012332E06B
:103060007B681B6803F00403002B08D0194B9B6896
:1030700023F4E0527B68DB68164913438B607B685E
:103080001B6803F00803002B09D0124B9B6823F444
:1030900060427B681B69DB000E4913438B6000F0C4
:1030A00021F802460B4B9B681B0903F00F030A49EA
:1030B000CB5C22FA03F3094A1360094B1B681846DC
:1030C000FDF7E4FD002318461037BD4680BD00BF64
:1030D000003C02400038024020BA000800000020F6
:1030E000040000202DE9B04F94B000AF00237B64B2
:1030F0000023FB6400233B640023BB64794B9B6883
:1031000003F00C03082B0DD0082B00F2E180002BFC
:1031100002D0042B03D0DBE0734BBB64DBE0734BCA
:10312000BB64D8E06F4B5B6803F03F037B646D4B7F
:103130005B6803F48003002B63D06A4B5B689B09D8
:103140000022BB63FA63BB6BC3F308033B6300233A
:103150007B63D7E90C4522462B464FF000004FF029
:103160000001590141EAD261500102460B46214655
:10317000511A3961294663EB01037B614FF000026C
:103180004FF00003D7E904AB59468B01514643EA9F
:10319000916351468A015146B2EB0108594663EBEF
:1031A00001094FF000024FF000034FEAC90343EA60
:1031B00058734FEAC80290469946234618EB03031A
:1031C000BB602B4649EB0303FB604FF000024FF05E
:1031D0000003D7E9024529464B02214643EAD15371
:1031E00021464A02104619467B6C0022BB62FA62F5
:1031F000D7E90A23FCF7F4FF02460B461346FB64AB
:1032000058E0384B5B689B09002218461146C0F312
:1032100008033B6200237B62D7E9088942464B469C
:103220004FF000004FF00001590141EAD261500116
:1032300002460B464146B2EB010A494663EB010BDD
:103240004FF000024FF000034FEA8B1343EA9A63FA
:103250004FEA8A12B2EB0A0463EB0B054FF000024F
:103260004FF00003EB0043EA5473E20014461D469E
:103270004346E3183B604B4645EB03037B604FF04E
:1032800000024FF00003D7E9004529468B02214692
:1032900043EA915321468A02104619467B6C00226C
:1032A000BB61FA61D7E90623FCF79AFF02460B4699
:1032B0001346FB640B4B5B681B0C03F003030133E9
:1032C0005B003B64FA6C3B6CB2FBF3F3BB6402E063
:1032D000054BBB6400BFBB6C18465037BD46BDE80C
:1032E000B08F00BF003802400024F40000127A00C2
:1032F00080B400AF034B1B681846BD465DF8047BE5
:10330000704700BF0000002080B500AFFFF7F0FF5E
:103310000246054B9B689B0A03F007030349CB5CFD
:1033200022FA03F3184680BD0038024030BA000884
:1033300080B483B000AF786039607B680F221A6078
:10334000124B9B6803F003027B685A600F4B9B682B
:1033500003F0F0027B689A600C4B9B6803F4E05228
:103360007B68DA60094B9B68DB0803F4E0527B68FA
:103370001A61074B1B6803F007023B681A6000BF25
:103380000C37BD465DF8047B704700BF0038024033
:10339000003C024080B582B000AF78607B68002BB3
:1033A00001D101237BE07B685B6A002B08D17B683D
:1033B0005B68B3F5827F09D07B680022DA6105E0A3
:1033C0007B6800221A617B6800225A617B680022B8
:1033D0009A627B6893F85130DBB2002B06D17B6890
:1033E000002283F850207868FDF708FC7B680222F1
:1033F00083F851207B681B681A687B681B6822F081
:1034000040021A607B685B6803F482727B689B6889
:1034100003F404431A437B68DB6803F400631A4334
:103420007B681B6903F002031A437B685B6903F046
:1034300001031A437B689B6903F400731A437B689A
:10344000DB6903F038031A437B681B6A03F08003CF
:1034500042EA03017B689B6A03F400527B681B68A5
:103460000A431A607B689B691B0C03F004017B68AC
:103470005B6A03F010027B681B680A435A607B6832
:103480001B68DA697B681B6822F40062DA617B687A
:1034900000225A657B68012283F8512000231846D8
:1034A0000837BD4680BD80B588B000AFF860B96010
:1034B0003B601346FB800023FB77FB6893F850309A
:1034C000012B01D1022326E1FB68012283F8502061
:1034D000FDF74CFDB861FB88FB82FB6893F8513027
:1034E000DBB2012B02D00223FB770BE1BB68002B80
:1034F00002D0FB88002B02D10123FB7702E1FB689D
:10350000032283F85120FB6800225A65FB68BA68E1
:103510001A63FB68FA889A86FB68FA88DA86FB6881
:1035200000229A63FB6800229A87FB680022DA87F0
:10353000FB6800225A64FB6800221A64FB689B68DF
:10354000B3F5004F0FD1FB681B681A68FB681B6856
:1035500022F040021A60FB681B681A68FB681B684F
:1035600042F480421A60FB681B681B6803F040034A
:10357000402B07D0FB681B681A68FB681B6842F089
:1035800040021A60FB68DB68B3F5006F4BD1FB6843
:103590005B68002B02D0FB8A012B3ED1FB681B6BC2
:1035A0001A88FB681B68DA60FB681B6B9A1CFB6857
:1035B0001A63FB68DB8E9BB2013B9AB2FB68DA862A
:1035C0002BE0FB681B689B6803F00203022B12D1FF
:1035D000FB681B6B1A88FB681B68DA60FB681B6B57
:1035E0009A1CFB681A63FB68DB8E9BB2013B9AB2A4
:1035F000FB68DA8611E0FDF7B9FC0246BB69D31A15
:103600003A689A4203D83B68B3F1FF3F02D13B6866
:10361000002B02D10323FB7774E0FB68DB8E9BB2A7
:10362000002BCED14CE0FB685B68002B02D0FB8AFC
:10363000012B40D1FB681A6BFB681B680C331278B6
:103640001A70FB681B6B5A1CFB681A63FB68DB8EE5
:103650009BB2013B9AB2FB68DA862CE0FB681B68E0
:103660009B6803F00203022B13D1FB681A6BFB6803
:103670001B680C3312781A70FB681B6B5A1CFB68B2
:103680001A63FB68DB8E9BB2013B9AB2FB68DA8659
:1036900011E0FDF76BFC0246BB69D31A3A689A4207
:1036A00003D83B68B3F1FF3F02D13B68002B02D146
:1036B0000323FB7726E0FB68DB8E9BB2002BCDD18A
:1036C000BA693968F86800F0CBFB0346002B02D0DA
:1036D000FB6820225A65FB689B68002B0AD10023F7
:1036E0003B61FB681B68DB683B61FB681B689B6890
:1036F0003B613B69FB685B6D002B02D00123FB77CC
:1037000000E000BFFB68012283F85120FB68002223
:1037100083F85020FB7F18462037BD4680BD80B51A
:1037200088B002AFF860B9603B601346FB800023AD
:10373000FB75FB685B68B3F5827F12D1FB689B6801
:10374000002B0ED1FB68042283F85120FA883B68D5
:1037500000931346BA68B968F86800F0F1F80346B8
:10376000EAE0FB6893F85030012B01D10223E3E03B
:10377000FB68012283F85020FDF7F8FB3861FB68F5
:1037800093F85130DBB2012B02D00223FB75CAE063
:10379000BB68002B02D0FB88002B02D10123FB75F4
:1037A000C1E0FB68042283F85120FB6800225A65BF
:1037B000FB68BA689A63FB68FA889A87FB68FA889C
:1037C000DA87FB6800221A63FB6800229A86FB688E
:1037D0000022DA86FB6800221A64FB6800225A6421
:1037E000FB689B68B3F5004F0FD1FB681B681A6834
:1037F000FB681B6822F040021A60FB681B681A68AD
:10380000FB681B6822F480421A60FB681B681B6817
:1038100003F04003402B07D0FB681B681A68FB6865
:103820001B6842F040021A60FB68DB68002B62D123
:103830002EE0FB681B689B6803F00103012B15D188
:10384000FB681B6803F10C02FB689B6B1278D2B219
:103850001A70FB689B6B5A1CFB689A63FB68DB8FD2
:103860009BB2013B9AB2FB68DA8711E0FDF77EFB61
:1038700002463B69D31A3A689A4203D83B68B3F1CF
:10388000FF3F02D13B68002B02D10323FB754AE0C6
:10389000FB68DB8F9BB2002BCBD131E0FB681B6850
:1038A0009B6803F00103012B13D1FB681B68DA68E6
:1038B000FB689B6B92B21A80FB689B6B9A1CFB683F
:1038C0009A63FB68DB8F9BB2013B9AB2FB68DA8795
:1038D00011E0FDF74BFB02463B69D31A3A689A4266
:1038E00003D83B68B3F1FF3F02D13B68002B02D104
:1038F0000323FB7517E0FB68DB8F9BB2002BCDD158
:103900003A693968F86800F045FA0346002B02D09E
:10391000FB6820225A65FB685B6D002B02D00123F7
:10392000FB7500E000BFFB68012283F85120FB68B3
:10393000002283F85020FB7D18461837BD4680BD15
:1039400080B58CB000AFF860B9607A607B800123ED
:10395000FB62002387F82B30FB6893F85030012B73
:1039600001D102238AE1FB68012283F85020FDF790
:10397000FDFA7862FB6893F8513087F82330FB68D2
:103980005B68FB617B887B8397F82330012B0FD02A
:10399000FB69B3F5827F07D1FB689B68002B03D1DD
:1039A00097F82330042B03D0022387F82B305BE1F8
:1039B000BB68002B05D07B68002B02D07B88002BD6
:1039C00003D1012387F82B304EE1FB6893F8513087
:1039D000DBB2042B03D0FB68052283F85120FB687F
:1039E00000225A65FB687A689A63FB687A88DA87EE
:1039F000FB687A889A87FB68BA681A63FB687A88DA
:103A0000DA86FB687A889A86FB6800221A64FB686B
:103A100000225A64FB681B681B6803F04003402BBC
:103A200007D0FB681B681A68FB681B6842F04002FD
:103A30001A60FB68DB68B3F5006F78D1FB685B68E0
:103A4000002B02D07B8B012B66D1FB681B6B1A8885
:103A5000FB681B68DA60FB681B6B9A1CFB681A63C7
:103A6000FB68DB8E9BB2013B9AB2FB68DA8653E0BF
:103A7000FB681B689B6803F00203022B1BD1FB68E9
:103A8000DB8E9BB2002B16D0FB6A012B13D1FB6897
:103A90001B6B1A88FB681B68DA60FB681B6B9A1C3F
:103AA000FB681A63FB68DB8E9BB2013B9AB2FB6832
:103AB000DA860023FB62FB681B689B6803F0010346
:103AC000012B19D1FB68DB8F9BB2002B14D0FB6854
:103AD0001B68DA68FB689B6B92B21A80FB689B6B71
:103AE0009A1CFB689A63FB68DB8F9BB2013B9AB21E
:103AF000FB68DA870123FB62FDF738FA02467B6A2E
:103B0000D31ABA6B9A4207D8BB6BB3F1FF3F03D00D
:103B1000032387F82B30A7E0FB68DB8E9BB2002BDA
:103B2000A6D1FB68DB8F9BB2002BA1D17CE0FB68A8
:103B30005B68002B02D07B8B012B6BD1FB681A6B6F
:103B4000FB681B680C3312781A70FB681B6B5A1CDD
:103B5000FB681A63FB68DB8E9BB2013B9AB2FB6881
:103B6000DA8657E0FB681B689B6803F00203022BB0
:103B70001CD1FB68DB8E9BB2002B17D0FB6A012B9C
:103B800014D1FB681A6BFB681B680C3312781A702F
:103B9000FB681B6B5A1CFB681A63FB68DB8E9BB2CD
:103BA000013B9AB2FB68DA860023FB62FB681B6864
:103BB0009B6803F00103012B19D1FB68DB8F9BB2DB
:103BC000002B14D0FB681B68DA68FB689B6BD2B2D1
:103BD0001A70FB689B6B5A1CFB689A63FB68DB8F4F
:103BE0009BB2013B9AB2FB68DA870123FB62FDF7C7
:103BF000BDF902467B6AD31ABA6B9A4203D8BB6BF3
:103C0000B3F1FF3F02D1BB6B002B03D1032387F835
:103C10002B3029E0FB68DB8E9BB2002BA2D1FB6826
:103C2000DB8F9BB2002B9DD17A6AB96BF86800F0EC
:103C300017F90346002B06D0012387F82B30FB68C9
:103C400020225A6510E0FB689B68002B0BD10023F3
:103C50007B61FB681B68DB687B61FB681B689B689A
:103C60007B617B6900E000BFFB68012283F8512083
:103C7000FB68002283F8502097F82B301846303725
:103C8000BD4680BD80B588B000AFF860B9603B60CC
:103C90001346FB71FDF76AF90246BB6A9B1A3A6844
:103CA0001344FB61FDF762F9B861394B1B685B0196
:103CB0001B0DFA6902FB03F37B6154E03B68B3F12F
:103CC000FF3F50D0FDF752F90246BB69D31AFA699B
:103CD0009A4202D9FB69002B3DD1FB681B685A68E8
:103CE000FB681B6822F0E0025A60FB685B68B3F572
:103CF000827F11D1FB689B68B3F5004F04D0FB684D
:103D00009B68B3F5806F07D1FB681B681A68FB6876
:103D10001B6822F040021A60FB689B6AB3F5005FE3
:103D20000FD1FB681B681A68FB681B6822F40052FD
:103D30001A60FB681B681A68FB681B6842F4005233
:103D40001A60FB68012283F85120FB68002283F887
:103D50005020032317E07B69002B01D10023FB6176
:103D60007B69013B7B61FB681B689A68BB681340F9
:103D7000BA689A420CBF01230023DBB21A46FB79D2
:103D80009A429BD1002318462037BD4680BD00BF14
:103D90000000002080B586B002AFF860B9607A609C
:103DA000FB685B68B3F5827F11D1FB689B68B3F554
:103DB000004F04D0FB689B68B3F5806F07D1FB68A8
:103DC0001B681A68FB681B6822F040021A60FB68D7
:103DD0005B68B3F5827F2AD1FB689B68B3F5806F7F
:103DE00012D07B680093BB6800228021F868FFF73F
:103DF00049FF0346002B2DD0FB685B6D43F020028A
:103E0000FB685A65032326E07B680093BB680022A9
:103E10000121F868FFF736FF0346002B1AD0FB6834
:103E20005B6D43F02002FB685A65032313E07B6857
:103E30000093BB6800220121F868FFF723FF0346C7
:103E4000002B07D0FB685B6D43F02002FB685A65CE
:103E5000032300E0002318461037BD4680BD000054
:103E600080B588B002AFF860B9607A601B4B1B6800
:103E70001B4AA2FB03235B0D4FF47A7202FB03F390
:103E80007B61FB685B68B3F5827F12D17B6800932E
:103E9000BB6800228021F868FFF7F4FE0346002B80
:103EA00016D0FB685B6D43F02002FB685A65032364
:103EB0000FE07B69002B0AD07B69013B7B61FB68CB
:103EC0001B689B6803F08003802BF2D000E000BFEA
:103ED000002318461837BD4680BD00BF00000020F3
:103EE000819F5E1680B582B000AF78607B68002B42
:103EF00001D1012341E07B6893F83D30DBB2002B18
:103F000006D17B68002283F83C20786800F039F8FD
:103F10007B68022283F83D207B681A687B68043343
:103F20001946104600F0D8F97B68012283F8462034
:103F30007B68012283F83E207B68012283F83F20C2
:103F40007B68012283F840207B68012283F84120AE
:103F50007B68012283F842207B68012283F843209A
:103F60007B68012283F844207B68012283F8452086
:103F70007B68012283F83D20002318460837BD46A0
:103F800080BD80B483B000AF786000BF0C37BD4601
:103F90005DF8047B7047000080B485B000AF7860A6
:103FA0007B6893F83D30DBB2012B01D001234EE05A
:103FB0007B68022283F83D207B681B68DA687B6897
:103FC0001B6842F00102DA607B681B68234A934257
:103FD00022D07B681B68B3F1804F1DD07B681B68C3
:103FE0001F4A934218D07B681B681E4A934213D025
:103FF0007B681B681C4A93420ED07B681B681B4A77
:10400000934209D07B681B68194A934204D07B68AD
:104010001B68184A934211D17B681B689B6803F0A8
:104020000703FB60FB68062B10D07B681B681A68CF
:104030007B681B6842F001021A6007E07B681B681E
:104040001A687B681B6842F001021A600023184658
:104050001437BD465DF8047B704700BF0000014087
:104060000004004000080040000C00400004014033
:10407000004001400018004080B582B000AF786079
:104080007B681B681B6903F00203022B22D17B684B
:104090001B68DB6803F00203022B1BD17B681B68E3
:1040A0006FF002021A617B6801221A777B681B6835
:1040B0009B6903F00303002B03D0786800F0EEF84F
:1040C00005E0786800F0E0F8786800F0F1F87B68C7
:1040D00000221A777B681B681B6903F00403042B1A
:1040E00022D17B681B68DB6803F00403042B1BD11F
:1040F0007B681B686FF004021A617B6802221A77E2
:104100007B681B689B6903F44073002B03D07868BD
:1041100000F0C4F805E0786800F0B6F8786800F0C0
:10412000C7F87B6800221A777B681B681B6903F05D
:104130000803082B22D17B681B68DB6803F00803A7
:10414000082B1BD17B681B686FF008021A617B6823
:1041500004221A777B681B68DB6903F00303002BDA
:1041600003D0786800F09AF805E0786800F08CF8E1
:10417000786800F09DF87B6800221A777B681B68DE
:104180001B6903F01003102B22D17B681B68DB68CE
:1041900003F01003102B1BD17B681B686FF010021B
:1041A0001A617B6808221A777B681B68DB6903F455
:1041B0004073002B03D0786800F070F805E0786851
:1041C00000F062F8786800F073F87B6800221A77D4
:1041D0007B681B681B6903F00103012B0ED17B6810
:1041E0001B68DB6803F00103012B07D17B681B68A8
:1041F0006FF001021A617868FCF7FEFB7B681B68B0
:104200001B6903F08003802B0ED17B681B68DB6881
:1042100003F08003802B07D17B681B686FF080025E
:104220001A61786800F002F97B681B681B6903F06B
:104230004003402B0ED17B681B68DB6803F0400312
:10424000402B07D17B681B686FF040021A617868C9
:1042500000F038F87B681B681B6903F02003202BF3
:104260000ED17B681B68DB6803F02003202B07D18D
:104270007B681B686FF020021A61786800F0CCF848
:1042800000BF0837BD4680BD80B483B000AF786002
:1042900000BF0C37BD465DF8047B704780B483B027
:1042A00000AF786000BF0C37BD465DF8047B7047F7
:1042B00080B483B000AF786000BF0C37BD465DF8B6
:1042C000047B704780B483B000AF786000BF0C37C8
:1042D000BD465DF8047B704780B485B000AF786060
:1042E00039607B681B68FB607B68404A934213D04F
:1042F0007B68B3F1804F0FD07B683D4A93420BD06F
:104300007B683C4A934207D07B683B4A934203D088
:104310007B683A4A934208D1FB6823F07003FB6044
:104320003B685B68FA681343FB607B682F4A9342E3
:104330002BD07B68B3F1804F27D07B682C4A934207
:1043400023D07B682B4A93421FD07B682A4A934232
:104350001BD07B68294A934217D07B68284A934236
:1043600013D07B68274A93420FD07B68264A93423A
:104370000BD07B68254A934207D07B68244A93423E
:1043800003D07B68234A934208D1FB6823F440732F
:10439000FB603B68DB68FA681343FB60FB6823F053
:1043A00080023B685B691343FB607B68FA681A60B4
:1043B0003B689A687B68DA623B681A687B689A6235
:1043C0007B680A4A934203D07B680C4A934203D12C
:1043D0003B681A697B681A637B6801225A6100BFD7
:1043E0001437BD465DF8047B704700BF00000140F4
:1043F0000004004000080040000C004000040140A0
:1044000000400140004401400048014000180040C5
:10441000001C00400020004080B483B000AF7860F2
:1044200000BF0C37BD465DF8047B704780B483B095
:1044300000AF786000BF0C37BD465DF8047B704765
:1044400084B080B584B000AF786007F11C0080E8CC
:104450000E003B6B012B22D17B689B6B23F48032D7
:104460007B689A637B68DB6823F4840323F0400352
:104470007A68D3607B68DB6823F440127B68DA607B
:10448000FB6C012B05D17B68DB6843F480127B68F1
:10449000DA60786801F0EEFB0346FB731AE07B6894
:1044A000DB6843F040027B68DA60786801F0E2FB89
:1044B0000346FB733B6C002B06D17B689B6B43F47C
:1044C00080327B689A6305E07B689B6B23F48032C3
:1044D0007B689A63BB6A012B0BD17B689B6843F0B6
:1044E00006027B689A607B689B6843F020027B68C9
:1044F0009A60FB7B18461037BD46BDE8804004B08B
:104500007047000080B487B000AFF860B960134610
:10451000FB71FB79022B65D1BB68414A934206D9F6
:10452000BB68404A934202D20F237B6162E0BB68C2
:104530003C4A934206D3BB683B4A934202D20E23C5
:104540007B6157E0BB68384A934206D3BB68374A61
:10455000934202D20D237B614CE0BB68334A934205
:1045600006D3BB68324A934202D80C237B6141E0F8
:10457000BB682F4A934206D9BB682E4A934202D8A1
:104580000B237B6136E0BB682A4A934206D9BB689D
:10459000294A934202D80A237B612BE0BB68264A52
:1045A000934206D9BB68254A934202D209237B6114
:1045B00020E0BB68214A934206D3BB68204A93425D
:1045C00002D808237B6115E0BB681D4A934206D9D7
:1045D000BB681C4A934202D207237B610AE0062390
:1045E0007B6107E0FB79002B02D109237B6101E0AD
:1045F00009237B61FB68DB6823F47052FB68DA6097
:10460000FB68DA687B699B0203F470531A43FB680A
:10461000DA60002318461C37BD465DF8047B7047FE
:10462000BFACD800C0E1E4000024F40080730601B0
:104630009F491A01FF2C31013FA44C0100366E0145
:104640001FABA6010048E80180B483B000AF7860DA
:104650007B689B6843F001027B689A6000231846E0
:104660000C37BD465DF8047B704780B483B000AF63
:1046700078607B689B6823F001027B689A60002366
:1046800018460C37BD465DF8047B704780B584B092
:1046900000AF78600B46FB700023FB607B68DB6833
:1046A00023F0C0427B68DA60FB78012B15D17B6870
:1046B000DB6843F000527B68DA600120FCF762FCA3
:1046C000FB680133FB60786801F045FA0346012B73
:1046D0001ED0FB68312BF0D91AE0FB78002B15D1E6
:1046E0007B68DB6843F080427B68DA600120FCF77E
:1046F00049FCFB680133FB60786801F02CFA034643
:10470000002B05D0FB68312BF0D901E0012305E037
:10471000FB68322B01D1012300E00023184610373B
:10472000BD4680BD84B080B586B000AF786007F12B
:10473000240080E80E000023FB757B68FB600023EB
:104740003B6109E07A683B6940339B0013440022D7
:104750005A603B6901333B613B690E2BF2D9FB6C1C
:10476000002B1CD1FB6803F500635B68FA6802F557
:10477000006243F0020353607B689B6B43F40012BA
:104780007B689A637B689B6B23F400227B689A6347
:104790007B689B6B23F480227B689A630BE07B68C9
:1047A0009B6B23F400127B689A637B689B6B43F4DA
:1047B00000227B689A63FB6803F560631A46002356
:1047C0001360FB6803F500631946FB6803F500639B
:1047D0001A460B681360BB6B012B0CD1FB6A002BD4
:1047E00004D10021786800F065F908E001217868BB
:1047F00000F060F903E00321786800F05BF9102114
:10480000786800F0F3F80346002B01D00123FB7514
:10481000786800F01FF90346002B01D00123FB75D7
:10482000FB6803F500631A4600231361FB6803F578
:1048300000631A4600235361FB6803F500631A46C0
:104840000023D36100233B6143E03B695A01FB68CD
:10485000134403F510631B6803F00043B3F1004FEA
:1048600018D13B69002B0AD13B695A01FB681344FC
:1048700003F510631A464FF00063136013E03B69C1
:104880005A01FB68134403F510631A464FF0904336
:10489000136008E03B695A01FB68134403F5106399
:1048A0001A46002313603B695A01FB68134403F561
:1048B00010631A46002313613B695A01FB681344D5
:1048C00003F510631A464FF67F3393603B6901335B
:1048D0003B617B6A3A699A42B7D300233B6143E06C
:1048E0003B695A01FB68134403F530631B6803F00E
:1048F0000043B3F1004F18D13B69002B0AD13B694B
:104900005A01FB68134403F530631A464FF0006305
:10491000136013E03B695A01FB68134403F53063ED
:104920001A464FF09043136008E03B695A01FB6858
:10493000134403F530631A46002313603B695A01A0
:10494000FB68134403F530631A46002313613B6987
:104950005A01FB68134403F530631A464FF67F3360
:1049600093603B6901333B617B6A3A699A42B7D3F2
:10497000FB6803F500631B69FA6802F5006223F423
:10498000807313617B6800229A617B686FF08042BC
:104990005A613B6B002B05D17B689B6943F0100289
:1049A0007B689A617B689A690F4B13437A689361BD
:1049B000FB6B002B05D07B689B6943F008027B688A
:1049C0009A61FB6C012B07D17B689B6943F08043A4
:1049D00043F004037A689361FB7D18461837BD469F
:1049E000BDE8804004B0704700383C8080B485B09A
:1049F00000AF786039600023FB60FB680133FB6027
:104A0000FB68134A934201D903231BE07B681B69AF
:104A1000002BF2DA0023FB603B689B0143F020028D
:104A20007B681A61FB680133FB60FB68084A9342AC
:104A300001D9032306E07B681B6903F02003202BC8
:104A4000F0D0002318461437BD465DF8047B70474C
:104A5000400D030080B485B000AF78600023FB6098
:104A6000FB680133FB60FB68114A934201D90323C1
:104A700018E07B681B69002BF2DA0023FB607B687F
:104A800010221A61FB680133FB60FB68084A9342FD
:104A900001D9032306E07B681B6903F01003102B88
:104AA000F0D0002318461437BD465DF8047B7047EC
:104AB000400D030080B485B000AF78600B46FB70FA
:104AC0007B68FB60FB6803F500631A68FB78F96894
:104AD00001F5006113430B60002318461437BD46EF
:104AE0005DF8047B704780B487B000AF78607B6866
:104AF0003B613B6903F500639B6803F00603FB60C1
:104B0000FB68002B02D10023FB750AE0FB68022B37
:104B100002D0FB68062B02D10223FB7501E00F23B4
:104B2000FB75FB7D18461C37BD465DF8047B70475E
:104B300080B485B000AF786039607B68FB603B680B
:104B40001B78BB603B685B78012B3AD1FB6803F5AF
:104B50000063DA693B681B7803F00F03012101FA57
:104B600003F39BB2F96801F500611343CB61BB68A5
:104B70005A01FB68134403F510631B6803F40043F8
:104B8000002B55D1BB685A01FB68134403F5106331
:104B90001A683B68DB68C3F30A013B681B799B0416
:104BA0001943BB689B050B431343BA685101FA686C
:104BB0000A4402F5106243F0805343F4004313604B
:104BC00036E0FB6803F50063DA693B681B7803F0A5
:104BD0000F03012101FA03F31B04F96801F50061D9
:104BE0001343CB61BB685A01FB68134403F5306380
:104BF0001B6803F40043002B1AD1BB685A01FB6801
:104C0000134403F530631A683B68DB68C3F30A0199
:104C10003B681B799B040B431343BA685101FA6844
:104C20000A4402F5306243F0805343F400431360BA
:104C3000002318461437BD465DF8047B704700001A
:104C400080B485B000AF786039607B68FB603B68FA
:104C50001B78BB603B685B78012B61D1BB685A0154
:104C6000FB68134403F510631B6803F00043B3F1C2
:104C7000004F1FD1BB685A01FB68134403F5106352
:104C80001B68BA685101FA680A4402F5106243F0E1
:104C900000631360BB685A01FB68134403F510639B
:104CA0001B68BA685101FA680A4402F5106243F0C1
:104CB00080431360FB6803F50063DA6B3B681B7885
:104CC00003F00F03012101FA03F39BB2DB43F96800
:104CD00001F500611340CB63FB6803F50063DA69FB
:104CE0003B681B7803F00F03012101FA03F39BB229
:104CF000DB43F96801F500611340CB61BB685A01E1
:104D0000FB68134403F510631A68BB685901FB681C
:104D10000B4403F510631946354B13400B6060E0FC
:104D2000BB685A01FB68134403F530631B6803F04A
:104D30000043B3F1004F1FD1BB685A01FB68134415
:104D400003F530631B68BA685101FA680A4402F53A
:104D5000306243F000631360BB685A01FB68134480
:104D600003F530631B68BA685101FA680A4402F51A
:104D7000306243F080431360FB6803F50063DA6B35
:104D80003B681B7803F00F03012101FA03F31B04B6
:104D9000DB43F96801F500611340CB63FB6803F561
:104DA0000063DA693B681B7803F00F03012101FA05
:104DB00003F31B04DB43F96801F500611340CB6189
:104DC000BB685A01FB68134403F530631A68BB687B
:104DD0005901FB680B4403F530631946054B13403A
:104DE0000B60002318461437BD465DF8047B7047FE
:104DF000007833EC0078F3EF80B58AB002AFF8604A
:104E0000B9601346FB71FB68FB61BB681B78BB6133
:104E1000BB685B78012B40F05C81BB689B69002B11
:104E200032D1BB695A01FB69134403F510631B6956
:104E3000BA695101FA690A4402F5106223F0FF537E
:104E400023F4C0131361BB695A01FB69134403F5D2
:104E500010631B69BA695101FA690A4402F51062CC
:104E600043F400231361BB695A01FB69134403F542
:104E700010631B69BA695101FA690A4402F51062AC
:104E8000DB0CDB04136174E0BB695A01FB6913445A
:104E900003F510631B69BA695101FA690A4402F506
:104EA0001062DB0CDB041361BB695A01FB6913441C
:104EB00003F510631B69BA695101FA690A4402F5E6
:104EC000106223F0FF5323F4C0131361BB695A012E
:104ED000FB69134403F510631A69BB689969BB68E1
:104EE000DB680B44591EBB68DB68B1FBF3F3D904E4
:104EF0009D4B0B40B9694801F969014401F5106106
:104F000013430B61BB695A01FB69134403F510633A
:104F10001A69BB689B69C3F31203B9694801F9694F
:104F2000014401F5106113430B61BB681B79012B30
:104F30001FD1BB695A01FB69134403F510631B6958
:104F4000BA695101FA690A4402F5106223F0C043BC
:104F50001361BB695A01FB69134403F510631B69B4
:104F6000BA695101FA690A4402F5106243F000532C
:104F70001361FB79012B4BD1BB685B69002B09D016
:104F8000BB695A01FB69134403F510631A46BB68F9
:104F90005B695361BB681B79012B28D1FB6903F561
:104FA00000639B6803F48073002B10D1BB695A0126
:104FB000FB69134403F510631B68BA695101FA6970
:104FC0000A4402F5106243F0005313600FE0BB691E
:104FD0005A01FB69134403F510631B68BA69510158
:104FE000FA690A4402F5106243F080531360BB690A
:104FF0005A01FB69134403F510631B68BA69510138
:10500000FA690A4402F5106243F00443136033E185
:10501000BB695A01FB69134403F510631B68BA6945
:105020005101FA690A4402F5106243F00443136027
:10503000BB681B79012B15D0BB689B69002B00F066
:105040001B81FB6903F500635A6BBB681B7803F097
:105050000F03012101FA03F3F96901F5006113431C
:105060004B6309E1FB6903F500639B6803F48073FC
:10507000002B10D1BB695A01FB69134403F510637F
:105080001B68BA695101FA690A4402F5106243F0DB
:10509000005313600FE0BB695A01FB69134403F529
:1050A00010631B68BA695101FA690A4402F510627B
:1050B00043F080531360BB681969BB681A78BB68FA
:1050C0009B6998B2FB7900930346F86800F0DEFA1A
:1050D000D2E0BB695A01FB69134403F530631B69D5
:1050E000BA695101FA690A4402F53062DB0CDB044B
:1050F0001361BB695A01FB69134403F530631B69F3
:10510000BA695101FA690A4402F5306223F0FF538B
:1051100023F4C0131361BB689B69002B26D1BB69C4
:105120005A01FB69134403F530631A69BB68DB68F5
:10513000C3F31203B9694801F969014401F530610B
:1051400013430B61BB695A01FB69134403F53063D8
:105150001B69BA695101FA690A4402F5306243F4E5
:10516000002313613AE000BF0000F81FBB689A6992
:10517000BB68DB6813445A1EBB68DB68B2FBF3F301
:10518000FB82BB68DB68FA8A03FB02F2BB68DA6168
:10519000BB695A01FB69134403F530631A69FB8A42
:1051A000D904384B0B40B9694801F969014401F54C
:1051B000306113430B61BB695A01FB69134403F56A
:1051C00030631A69BB68DB69C3F31203B96948012C
:1051D000F969014401F5306113430B61FB79012B3F
:1051E0000DD1BB681B69002B09D0BB681969BB696D
:1051F0005A01FB69134403F530630A465A61BB68E0
:105200001B79012B28D1FB6903F500639B6803F42C
:105210008073002B10D1BB695A01FB69134403F55D
:1052200030631B68BA695101FA690A4402F53062B9
:1052300043F0005313600FE0BB695A01FB6913444C
:1052400003F530631B68BA695101FA690A4402F533
:10525000306243F080531360BB695A01FB69134409
:1052600003F530631B68BA695101FA690A4402F513
:10527000306243F004431360002318462037BD46D4
:1052800080BD00BF0000F81F80B487B000AFF86099
:10529000B9601346FB71FB687B61BB681B783B619F
:1052A000BB685B78012B40F0CE80BB689B69002B0C
:1052B00032D13B695A017B69134403F510631B69C2
:1052C0003A6951017A690A4402F5106223F0FF53EA
:1052D00023F4C01313613B695A017B69134403F53E
:1052E00010631B693A6951017A690A4402F5106238
:1052F00043F4002313613B695A017B69134403F5AE
:1053000010631B693A6951017A690A4402F5106217
:10531000DB0CDB0413614EE03B695A017B691344EB
:1053200003F510631B693A6951017A690A4402F571
:105330001062DB0CDB0413613B695A017B69134487
:1053400003F510631B693A6951017A690A4402F551
:10535000106223F0FF5323F4C0131361BB689A69F2
:10536000BB68DB689A4203D9BB68DA68BB689A619C
:105370003B695A017B69134403F510631B693A6961
:1053800051017A690A4402F5106243F40023136163
:105390003B695A017B69134403F510631A69BB68C2
:1053A0009B69C3F31203396948017969014401F526
:1053B000106113430B61FB79012B1ED1BB685B6944
:1053C000002B09D03B695A017B69134403F5106334
:1053D0001A46BB685B6953613B695A017B69134498
:1053E00003F510631B683A6951017A690A4402F5B2
:1053F000106243F00443136097E03B695A017B69F4
:10540000134403F510631B683A6951017A690A4431
:1054100002F5106243F004431360BB689B69002BE4
:1054200000F083807B6903F500635A6BBB681B78CF
:1054300003F00F03012101FA03F3796901F500611B
:1054400013434B6371E03B695A017B69134403F5D5
:1054500030631B693A6951017A690A4402F5306286
:10546000DB0CDB0413613B695A017B69134403F5D0
:1054700030631B693A6951017A690A4402F5306266
:1054800023F0FF5323F4C0131361BB689B69002B07
:1054900003D0BB68DA68BB689A61BB68DA68BB682E
:1054A000DA613B695A017B69134403F530631B6978
:1054B0003A6951017A690A4402F5306243F40023E3
:1054C00013613B695A017B69134403F530631A6920
:1054D000BB68DB69C3F31203396948017969014488
:1054E00001F5306113430B61FB79012B0DD1BB68D2
:1054F0001B69002B09D0BB6819693B695A017B699C
:10550000134403F530630A465A613B695A017B69CB
:10551000134403F530631B683A6951017A690A4400
:1055200002F5306243F004431360002318461C3731
:10553000BD465DF8047B704780B487B000AF7860EB
:1055400039600023FB600023FB757B683B613B688F
:105550005B78012B4AD13B681B785A013B691344A5
:1055600003F510631B6803F00043B3F1004F40F0F4
:1055700086803B681B785A013B69134403F510632E
:105580001B683A68127851013A690A4402F51062C0
:1055900043F0006313603B681B785A013B69134476
:1055A00003F510631B683A68127851013A690A449E
:1055B00002F5106243F080431360FB680133FB6027
:1055C000FB6842F21072934202D90123FB7556E048
:1055D0003B681B785A013B69134403F510631B6851
:1055E00003F00043B3F1004FE7D048E03B681B787D
:1055F0005A013B69134403F530631B6803F0004311
:10560000B3F1004F3BD13B681B785A013B6913440F
:1056100003F530631B683A68127851013A690A440D
:1056200002F5306243F0006313603B681B785A0157
:105630003B69134403F530631B683A6812785101E3
:105640003A690A4402F5306243F080431360FB6814
:105650000133FB60FB6842F21072934202D90123CE
:10566000FB750CE03B681B785A013B69134403F55A
:1056700030631B6803F00043B3F1004FE7D0FB7DBC
:1056800018461C37BD465DF8047B704780B489B06E
:1056900000AFF860B96011461A460B46FB7113461D
:1056A000BB80FB687B61BB68FB6197F82830002BEF
:1056B00023D1BB8803339B083B610023BB6118E007
:1056C000FB791A037B69134403F580531A46FB697F
:1056D0001B681360FB690133FB61FB690133FB61EC
:1056E000FB690133FB61FB690133FB61BB6901337A
:1056F000BB61BA693B699A42E2D30023184624375A
:10570000BD465DF8047B704780B48BB000AFF86095
:10571000B9601346FB80FB68BB61BB687B62FB889A
:105720009B089BB27B61FB8803F00303FB83002390
:105730003B6214E0BB6903F580531A687B6A1A6008
:105740007B6A01337B627B6A01337B627B6A013354
:105750007B627B6A01337B623B6A01333B623A6A5C
:105760007B699A42E6D3FB8B002B1ED000233B6261
:10577000BB6903F580531A4607F1100312681A60DB
:105780003A693B6ADBB2DB0022FA03F3DAB27B6AE6
:105790001A703B6A01333B627B6A01337B62FB8B8D
:1057A000013BFB83FB8B002BEAD17B6A18462C372D
:1057B000BD465DF8047B704780B485B000AF78606B
:1057C00039607B68FB603B681B78BB603B685B783B
:1057D000012B2CD1BB685A01FB68134403F51063FD
:1057E0001B68002B12DBBB68002B0FD0BB685A0173
:1057F000FB68134403F510631B68BA685101FA682B
:105800000A4402F5106223F080431360BB685A011A
:10581000FB68134403F510631B68BA685101FA680A
:105820000A4402F5106243F4001313602BE0BB68D6
:105830005A01FB68134403F530631B68002B12DB2D
:10584000BB68002B0FD0BB685A01FB68134403F5FB
:1058500030631B68BA685101FA680A4402F5306285
:1058600023F080431360BB685A01FB68134403F5BF
:1058700030631B68BA685101FA680A4402F5306265
:1058800043F400131360002318461437BD465DF837
:10589000047B704780B485B000AF786039607B6866
:1058A000FB603B681B78BB603B685B78012B28D1B1
:1058B000BB685A01FB68134403F510631B68BA68A0
:1058C0005101FA680A4402F5106223F400131360D0
:1058D0003B681B79032B03D03B681B79022B38D123
:1058E000BB685A01FB68134403F510631B68BA6870
:1058F0005101FA680A4402F5106243F080531360C4
:1059000027E0BB685A01FB68134403F530631B684A
:10591000BA685101FA680A4402F5306223F40013B0
:1059200013603B681B79032B03D03B681B79022B68
:105930000FD1BB685A01FB68134403F530631B6841
:10594000BA685101FA680A4402F5306243F08053A4
:105950001360002318461437BD465DF8047B70477A
:1059600080B485B000AF78600B46FB707B68FB604D
:10597000FB6803F500631B68FA6802F5006223F414
:10598000FE631360FB6803F500631A68FB781B0174
:1059900003F4FE63F96801F5006113430B60002313
:1059A00018461437BD465DF8047B704780B485B057
:1059B00000AF78607B68FB60FB6803F560631B6881
:1059C000FA6802F5606223F003031360FB6803F5D5
:1059D00000635B68FA6802F5006223F0020353601B
:1059E000002318461437BD465DF8047B704780B429
:1059F00085B000AF78607B68FB60FB6803F560638F
:105A00001B68FA6802F5606223F003031360FB6809
:105A100003F500635B68FA6802F5006243F0020375
:105A20005360002318461437BD465DF8047B704769
:105A300080B485B000AF78607B685B69FB607B6891
:105A40009B69FA681340FB60FB6818461437BD4633
:105A50005DF8047B704780B485B000AF78607B68E8
:105A6000FB60FB6803F500639B69BB60FB6803F5A3
:105A70000063DB69BA681340BB60BB681B0C184647
:105A80001437BD465DF8047B704780B485B000AF25
:105A900078607B68FB60FB6803F500639B69BB6013
:105AA000FB6803F50063DB69BA681340BB60BB6841
:105AB0009BB218461437BD465DF8047B704780B42E
:105AC00085B000AF78600B46FB707B68FB60FB78AD
:105AD0005A01FB68134403F530639B68BB60FB68A5
