:020000040800F2
:1000000000000220AD080008090800080F080008D9
:10001000150800081B08000821080008000000005F
:100020000000000000000000000000002708000899
:1000300035080008000000004308000851080008C7
:10004000FD080008FD080008FD080008FD0800087C
:10005000FD080008FD080008FD080008FD0800086C
:10006000FD080008FD080008FD080008FD0800085C
:10007000FD080008FD080008FD080008FD0800084C
:10008000FD080008FD080008FD080008FD0800083C
:10009000FD080008FD080008FD080008FD0800082C
:1000A000FD080008FD080008FD080008FD0800081C
:1000B000FD080008FD080008FD080008FD0800080C
:1000C000FD080008FD080008FD080008FD080008FC
:1000D000FD080008FD080008FD080008FD080008EC
:1000E000FD080008FD080008FD080008FD080008DC
:1000F000FD080008FD080008FD080008FD080008CC
:10010000FD080008FD080008FD080008FD080008BB
:10011000FD080008FD08000861080008FD08000847
:10012000FD080008FD080008FD080008FD0800089B
:10013000FD0800080000000000000000FD080008A5
:10014000FD080008FD080008FD0800087508000803
:10015000FD080008FD080008FD080008FD0800086B
:10016000FD080008FD080008FD080008FD0800085B
:10017000FD080008FD080008000000000000000065
:08018000FD080008FD0800085D
:1001880010B5054C237833B9044B13B10448AFF3C9
:1001980000800123237010BD000100200000000032
:1001A8007475000808B5034B1BB103490348AFF346
:1001B800008008BD000000000401002074750008DC
:1001C800034613F8012B002AFBD1181A013870478F
:1001D80053B94AB9002908BF00281CBF4FF0FF31A6
:1001E8004FF0FF3000F074B9ADF1080C6DE904CEA2
:1001F80000F006F8DDF804E0DDE9022304B07047FA
:100208002DE9F047089D04468E46002B4DD18A42C1
:10021800944669D9B2FA82F252B101FA02F3C2F1F4
:10022800200120FA01F10CFA02FC41EA030E944085
:100238004FEA1C48210CBEFBF8F61FFA8CF708FBA6
:1002480016E341EA034306FB07F199420AD91CEB7E
:10025800030306F1FF3080F01F81994240F21C81B0
:10026800023E63445B1AA4B2B3FBF8F008FB1033F8
:1002780044EA034400FB07F7A7420AD91CEB04042D
:1002880000F1FF3380F00A81A74240F207816444FD
:10029800023840EA0640E41B00261DB1D440002382
:1002A800C5E900433146BDE8F0878B4209D9002DE6
:1002B80000F0EF800026C5E9000130463146BDE870
:1002C800F087B3FA83F6002E4AD18B4202D38242DA
:1002D80000F2F980841A61EB030301209E46002D89
:1002E800E0D0C5E9004EDDE702B9FFDEB2FA82F2DE
:1002F800002A40F09280A1EB0C014FEA1C471FFA3C
:100308008CFE0126200CB1FBF7F307FB131140EA22
:1003180001410EFB03F0884208D91CEB010103F1EF
:10032800FF3802D2884200F2CB804346091AA4B2B1
:10033800B1FBF7F007FB101144EA01440EFB00FE85
:10034800A64508D91CEB040400F1FF3102D2A645EA
:1003580000F2BB800846A4EB0E0440EA03409CE789
:10036800C6F12007B34022FA07FC4CEA030C20FA36
:1003780007F401FA06F31C43F9404FEA1C4900FA56
:1003880006F3B1FBF9F8200C1FFA8CFE09FB1811D3
:1003980040EA014108FB0EF0884202FA06F20BD946
:1003A8001CEB010108F1FF3A80F08880884240F296
:1003B8008580A8F102086144091AA4B2B1FBF9F0DA
:1003C80009FB101144EA014100FB0EFE8E4508D9D5
:1003D8001CEB010100F1FF346CD28E456AD902385A
:1003E800614440EA0840A0FB0294A1EB0E01A1423F
:1003F800C846A64656D353D05DB1B3EB080261EBAD
:100408000E0101FA07F722FA06F3F1401F43C5E986
:10041800007100263146BDE8F087C2F12003D840BC
:100428000CFA02FC21FA03F3914001434FEA1C47FE
:100438001FFA8CFEB3FBF7F007FB10360B0C43EAF0
:10044800064300FB0EF69E4204FA02F408D91CEBA0
:10045800030300F1FF382FD29E422DD9023863449E
:100468009B1B89B2B3FBF7F607FB163341EA03413E
:1004780006FB0EF38B4208D91CEB010106F1FF388D
:1004880016D28B4214D9023E6144C91A46EA004684
:1004980038E72E46284605E70646E3E61846F8E616
:1004A8004B45A9D2B9EB020864EB0C0E0138A3E75F
:1004B8004646EAE7204694E74046D1E7D0467BE740
:1004C800023B614432E7304609E76444023842E7B8
:1004D800704700BF98B500AF00F00EFA00F018F8AA
:1004E80000F082F806F0FCFA084B1C68074B1B6802
:1004F8001846FFF765FE03469BB21946204606F0EC
:10050800ADFB4FF47A7000F039FAEDE700000020F7
:1005180080B594B000AF07F12003302200211846BF
:1005280007F01CF807F10C0300221A605A609A6061
:10053800DA601A610023BB60294B1B6C284A43F020
:1005480080531364264B1B6C03F08053BB60BB685D
:1005580000237B60234B1B68224A43F480431360CB
:10056800204B1B6803F480437B607B6803233B625A
:100578004FF480337B620123FB6210233B63022329
:10058800BB634FF48003FB6304233B6448237B6411
:100598000223BB640323FB6407F12003184601F020
:1005A80025FF0346002B01D000F080F80F23FB60E5
:1005B80000233B6100237B610023BB610023FB61B7
:1005C80007F10C030021184602F088F90346002BB6
:1005D80001D000F06BF800BF5037BD4680BD00BFAA
:1005E800003802400070004080B588B000AF07F1C5
:1005F8000C0300221A605A609A60DA601A610023BC
:10060800BB601F4B1B6B1E4A43F0800313631C4BDC
:100618001B6B03F08003BB60BB6800237B60184B37
:100628001B6B174A43F001031363154B1B6B03F055
:1006380001037B607B6800233B60114B1B6B104AF6
:1006480043F0020313630E4B1B6B03F002033B6082
:100658003B68002220210B4800F032FC2023FB607D
:1006680001233B6100237B610023BB6107F10C037D
:100678001946044800F088FA00BF2037BD4680BDFF
:10068800003802400004024080B582B000AF7860B4
:100698007B681B68044A934201D100F04FF900BF00
:1006A8000837BD4680BD00BF0010004080B400AFD1
:1006B80072B600BFFEE7000080B483B000AF00232D
:1006C8007B60104B5B6C0F4A43F4804353640D4BC3
:1006D8005B6C03F480437B607B6800233B60094BC1
:1006E8001B6C084A43F080531364064B1B6C03F0E1
:1006F80080533B603B6800BF0C37BD465DF8047B08
:10070800704700BF0038024080B58EB000AF7860F7
:100718000023FB620023BB620023FB60334B1B6C8E
:10072800324A43F010031364304B1B6C03F0100380
:10073800FB60FB6807F1100207F114031146184625
:1007480002F0D8FA3B6AFB62FB6A002B03D102F085
:10075800BDFA786304E002F0B9FA03465B007B63F4
:100768007B6B234AA2FB03239B0C013BBB62214BFF
:10077800214A1A601F4B40F2E732DA601D4ABB6A11
:1007880053601C4B00221A611A4B00229A60194BC5
:1007980000229A61174802F0DFFA034687F83330DF
:1007A80097F83330002B1BD1124802F02FFB034679
:1007B80087F8333097F83330002B11D1362000F00A
:1007C800D5F97B680F2B08D800227968362000F00D
:1007D800B1F90A4A7B68136002E0012387F83330D5
:1007E80097F8333018463837BD4680BD0038024088
:1007F80083DE1B431C01002000100040080000207D
:1008080080B400AFFEE780B400AFFEE780B400AF6D
:10081800FEE780B400AFFEE780B400AFFEE780B427
:1008280000AF00BFBD465DF8047B704780B400AFE1
:1008380000BFBD465DF8047B704780B400AF00BFC1
:10084800BD465DF8047B704780B400AF00BFBD466D
:100858005DF8047B7047000080B500AF024802F0E5
:1008680045FB00BF80BD00BF1C01002080B500AF64
:10087800024800F08EFC00BF80BD00BF4816002073
:1008880080B400AF064BD3F88830054A43F47003B0
:10089800C2F8883000BFBD465DF8047B704700BFD2
:1008A80000ED00E0DFF834D00D480E490E4A002371
:1008B80002E0D458C4500433C4188C42F9D30B4A0C
:1008C8000B4C002301E013600432A242FBD3FFF774
:1008D800D7FF06F01FFEFFF7FDFD7047000002205E
:1008E8000000002000010020007600080001002020
:1008F800741D0020FEE7000080B500AF0E4B1B689A
:100908000D4A43F4007313600B4B1B680A4A43F407
:1009180080631360084B1B68074A43F480731360B5
:10092800032000F0FCF80F20FFF7EEFEFFF7C4FEEF
:100938000023184680BD00BF003C024080B400AFD1
:10094800064B1B781A46064B1B681344044A13606F
:1009580000BFBD465DF8047B704700BF0C00002057
:100968006401002080B400AF034B1B681846BD46E5
:100978005DF8047B704700BF6401002080B584B037
:1009880000AF7860FFF7EEFFB8607B68FB60FB683C
:10099800B3F1FF3F05D00A4B1B781A46FB68134496
:1009A800FB6000BFFFF7DEFF0246BB68D31AFA6898
:1009B8009A42F7D800BF00BF1037BD4680BD00BFC0
:1009C8000C00002080B485B000AF78607B6803F02D
:1009D8000703FB600C4BDB68BB60BA684FF6FF038C
:1009E8001340BB60FB681A02BB68134343F0BF6344
:1009F80043F40033BB60044ABB68D36000BF1437BC
:100A0800BD465DF8047B704700ED00E080B400AFA0
:100A1800044BDB681B0A03F007031846BD465DF864
:100A2800047B704700ED00E080B483B000AF03465C
:100A3800FB7197F90730002B0BDBFB7903F01F02E2
:100A4800074997F907305B09012000FA02F241F8DB
:100A5800232000BF0C37BD465DF8047B704700BFFC
:100A680000E100E080B483B000AF03463960FB7159
:100A780097F90730002B0ADB3B68DAB20C4997F983
:100A880007301201D2B20B4483F800230AE03B6816
:100A9800DAB20849FB7903F00F03043B1201D2B222
:100AA8000B441A7600BF0C37BD465DF8047B7047CF
:100AB80000E100E000ED00E080B489B000AFF8602C
:100AC800B9607A60FB6803F00703FB61FB69C3F157
:100AD8000703042B28BF0423BB61FB690433062BDF
:100AE80002D9FB69033B00E000237B614FF0FF3232
:100AF800BB6902FA03F3DA43BB681A407B699A4080
:100B08004FF0FF317B6901FA03F3D9437B680B404F
:100B1800134318462437BD465DF8047B704780B5FB
:100B280082B000AF78607868FFF74CFF00BF0837E5
:100B3800BD4680BD80B586B000AF0346B9607A6017
:100B4800FB7300237B61FFF761FF78617A68B968FE
:100B58007869FFF7B1FF024697F90F30114618463A
:100B6800FFF780FF00BF1837BD4680BD80B582B053
:100B780000AF0346FB7197F907301846FFF754FF9B
:100B880000BF0837BD4680BD80B489B000AF78602B
:100B9800396000237B6100233B610023BB61002394
:100BA800FB616BE10122FB6902FA03F37B613B689D
:100BB8001B687A6913403B613A697B699A4240F045
:100BC8005A813B685B6803F00303012B05D03B683F
:100BD8005B6803F00303022B30D17B689B68BB6121
:100BE800FB695B00032202FA03F3DB43BA69134093
:100BF800BB613B68DA68FB695B0002FA03F3BA6918
:100C08001343BB617B68BA699A607B685B68BB61A8
:100C18000122FB6902FA03F3DB43BA691340BB61A3
:100C28003B685B681B0903F00102FB6902FA03F3E6
:100C3800BA691343BB617B68BA695A603B685B68F1
:100C480003F00303032B17D07B68DB68BB61FB69E8
:100C58005B00032202FA03F3DB43BA691340BB616A
:100C68003B689A68FB695B0002FA03F3BA691343AD
:100C7800BB617B68BA69DA603B685B6803F00303B1
:100C8800022B23D1FB69DA087B68083253F822303B
:100C9800BB61FB6903F007039B000F2202FA03F311
:100CA800DB43BA691340BB613B681A69FB6903F00F
:100CB80007039B0002FA03F3BA691343BB61FB699C
:100CC800DA087B680832B96943F822107B681B6828
:100CD800BB61FB695B00032202FA03F3DB43BA69D9
:100CE8001340BB613B685B6803F00302FB695B0070
:100CF80002FA03F3BA691343BB617B68BA691A60E5
:100D08003B685B6803F44033002B00F0B480002399
:100D1800FB60604B5B6C5F4A43F4804353645D4BFC
:100D28005B6C03F48043FB60FB685B4AFB699B08D0
:100D3800023352F82330BB61FB6903F003039B00C5
:100D48000F2202FA03F3DB43BA691340BB617B68E5
:100D5800524A93422BD07B68514A934225D07B68F4
:100D6800504A93421FD07B684F4A934219D07B6800
:100D78004E4A934213D07B684D4A93420DD07B680C
:100D88004C4A934207D07B684B4A934201D10723D0
:100D98000EE008230CE006230AE0052308E00423FC
:100DA80006E0032304E0022302E0012300E000231D
:100DB800FA6902F0030292009340BA691343BB61D7
:100DC8003549FB699B080233BA6941F823203B4B3C
:100DD8009B68BB613B69DB43BA691340BB613B68F5
:100DE8005B6803F48013002B03D0BA693B69134393
:100DF800BB61324ABB699360304BDB68BB613B69BE
:100E0800DB43BA691340BB613B685B6803F40013BA
:100E1800002B03D0BA693B691343BB61274ABB69FE
:100E2800D360264B5B68BB613B69DB43BA691340FF
:100E3800BB613B685B6803F40033002B03D0BA69DD
:100E48003B691343BB611D4ABB6953601B4B1B685D
:100E5800BB613B69DB43BA691340BB613B685B68B4
:100E680003F48033002B03D0BA693B691343BB6199
:100E7800124ABB691360FB690133FB61FB690F2BE5
:100E88007FF690AE00BF00BF2437BD465DF8047BF7
:100E9800704700BF0038024000380140000002409F
:100EA8000004024000080240000C0240001002400A
:100EB8000014024000180240001C0240003C01409F
:100EC80080B483B000AF78600B467B8013467B709C
:100ED8007B78002B03D07A887B689A6103E07B8853
:100EE8001A047B689A6100BF0C37BD465DF8047B25
:100EF8007047F0B58FB00AAF78607B68002B01D1DE
:100F080001230FE17B681B68BB607B6893F8BD34E5
:100F1800DBB2002B06D17B68002283F8BC247868FA
:100F280005F0E4FF7B68032283F8BD24BB68DB6B14
:100F380003F48073002B02D17B6800221A617B685E
:100F48001B68184602F0CBFA7B681B683B607E681A
:100F58006D4606F110040FCC0FC50FCC0FC594E8F1
:100F6800030085E80300331D0ECB386802F0A2F9B0
:100F78000346002B05D07B68022283F8BD24012399
:100F8800D0E07B681B680021184602F0B9FA0023FC
:100F9800FB734AE0FA7B79681346DB0013449B0035
:100FA8000B443D3301221A70FA7B79681346DB0043
:100FB80013449B000B443C33FA7B1A70FA7BFB7B8F
:100FC80098B279681346DB0013449B000B44443302
:100FD80002461A80FA7B79681346DB0013449B00AB
:100FE8000B44403300221A70FA7B79681346DB0001
:100FF80013449B000B44483300221A60FA7B79683B
:101008001346DB0013449B000B444C3300221A6048
:10101800FA7B79681346DB0013449B000B44543376
:1010280000221A60FB7B0133FB73FA7B7B685B68E9
:101038009A42AFD30023FB7344E0FA7B79681346E6
:10104800DB0013449B000B4403F27D2300221A703B
:10105800FA7B79681346DB0013449B000B4403F5C5
:101068001F73FA7B1A70FA7B79681346DB00134406
:101078009B000B4403F5207300221A70FA7B7968F1
:101088001346DB0013449B000B4403F52273002234
:101098001A60FA7B79681346DB0013449B000B4403
:1010A80003F5237300221A60FA7B79681346DB0084
:1010B80013449B000B4403F5257300221A60FB7B45
:1010C8000133FB73FA7B7B685B689A42B5D37B6814
:1010D8001B683B607E686D4606F110040FCC0FC597
:1010E8000FCC0FC594E8030085E80300331D0ECB31
:1010F800386802F051FA0346002B05D07B680222BB
:1011080083F8BD2401230DE07B68002283F8382092
:101118007B68012283F8BD247B681B68184603F0AE
:10112800A0FB002318461437BD46F0BD80B584B037
:1011380000AF78607B681B68FB607B6893F8BC3401
:10114800012B01D1022320E07B68012283F8BC2413
:101158007B689B6A012B09D17B689B69012B05D0B1
:10116800FB689B6B43F48032FB689A637B681B685F
:10117800184602F0A3F97B681B68184603F050FB79
:101188007B68002283F8BC24002318461037BD462C
:1011980080BD90B58DB000AF78607B681B683B62FE
:1011A8003B6AFB617B681B68184603F00EFC03462C
:1011B800002B40F08A847B681B68184603F072FB9A
:1011C8000346002B00F08084FB6903F500639B68ED
:1011D8001B0AC3F30D027B68C3F8FC247B681B68F9
:1011E800184603F05FFB034603F00203022B07D106
:1011F8007B681B685A697B681B6802F002025A61A7
:101208007B681B68184603F04DFB034603F0100388
:10121800102B61D17B681B689A697B681B6822F078
:1012280010029A613B6A1B6ABB61BB6903F00F023B
:101238001346DB0013449B0003F51E737A681344BE
:1012480004337B61BB695B0C03F00F03022B24D1D1
:10125800BA6947F6F0731340002B35D07B691969DA
:10126800BB691B099BB2C3F30A039BB21A46386ACF
:1012780003F084F97B691A69BB691B09C3F30A0384
:101288001A447B691A617B691A6ABB691B09C3F333
:101298000A031A447B691A6216E0BB695B0C03F007
:1012A8000F03062B10D17B6803F2C44308221946AA
:1012B800386A03F063F97B691A6ABB691B09C3F3CF
:1012C8000A031A447B691A627B681B689A697B68FF
:1012D8001B6842F010029A617B681B68184603F08D
:1012E800E1FA034603F40023B3F5002F40F0A7808A
:1012F80000237B627B681B68184603F0E6FAB86235
:1013080099E0BB6A03F00103002B00F08E807B6834
:101318001B687A6AD2B21146184603F00AFB386194
:101328003B6903F00103002B0CD07B6A5A01FB696F
:10133800134403F530631A4601239360796A786889
:1013480000F0C2FE3B6903F00803002B0CD07B6A57
:101358005A01FB69134403F530631A460823936066
:10136800796A786800F098FF3B6903F01003002B56
:1013780008D07B6A5A01FB69134403F530631A46A7
:10138800102393603B6903F00203002B30D03B6AC3
:101398005B6903F08003802B09D1FB6903F50063C7
:1013A8005B68FA6902F5006243F4806353607A6A05
:1013B8001346DB0013449B0003F51E737A6813443D
:1013C80004337B617B69DB78012B08D17B690022C0
:1013D800DA707B6ADBB21946786805F08DFE7B6AA5
:1013E8005A01FB69134403F530631A4602239360DC
:1013F8003B6903F02003002B08D07B6A5A01FB6984
:10140800134403F530631A46202393603B6903F4C1
:101418000053002B09D07B6A5A01FB69134403F57A
:1014280030631A464FF4005393607B6A01337B6242
:10143800BB6A5B08BB62BB6A002B7FF462AF7B6848
:101448001B68184603F02EFA034603F48023B3F50D
:10145800802F40F0DB807B681B68184603F04FFA4A
:10146800B86200237B62CDE0BB6A03F00103002B66
:1014780000F0C2807B681B687A6AD2B211461846AF
:1014880003F075FA38613B6903F00103002B57D06C
:101498007B6A03F00F03012202FA03F3FB60FB6986
:1014A80003F500635A6BFB68DB43F96901F50061DA
:1014B80013404B637B6A5A01FB69134403F51063BD
:1014C8001A46012393607B681B69012B32D1796826
:1014D8007A6A1346DB0013449B000B444C331968AB
:1014E80078687A6A1346DB0013449B000344483348
:1014F8001B68194478687A6A1346DB0013449B001A
:1015080003444C3319607B6A002B13D179687A6ADB
:101518001346DB0013449B000B4454331B68002B19
:1015280008D17B6818687B6803F2C4431A46012116
:1015380003F07CFA7B6ADBB21946786805F057FD40
:101548003B6903F00803002B08D07B6A5A01FB694A
:10155800134403F510631A46082393603B6903F0AC
:101568001003002B08D07B6A5A01FB69134403F56A
:1015780010631A46102393603B6903F04003002B65
:1015880008D07B6A5A01FB69134403F510631A46B5
:10159800402393603B6903F00203002B23D0796A50
:1015A800386A02F05DF97A6A1346DB0013449B003F
:1015B80038337A68134404337B617B69DB78012B09
:1015C80008D17B690022DA707B6ADBB21946786839
:1015D80005F0A4FD7B6A5A01FB69134403F5106307
:1015E8001A46022393603B6903F08003002B03D063
:1015F800796A786800F0DBFC7B6A01337B62BB6A3E
:101608005B08BB62BB6A002B7FF42EAF7B681B684C
:10161800184603F047F9034603F00043B3F1004FBF
:1016280022D1FB6903F500635B68FA6902F5006281
:1016380023F0010353607B6893F8F434012B08D13D
:101648007B68002283F8F4240021786800F0C2FE49
:1016580002E0786805F042FD7B681B685A697B6880
:101668001B6802F000425A617B681B68184603F049
:1016780019F9034603F40063B3F5006F12D1FB694F
:1016880003F500639B6803F00103012B02D178681E
:1016980005F0FEFC7B681B685A697B681B6802F4CE
:1016A80000625A617B681B68184603F0FBF8034622
:1016B80003F48053B3F5805F40F0B780FB6903F50E
:1016C80000635B68FA6902F5006223F00103536066
:1016D8007B681B681021184602F0C2F80023FB62E1
:1016E80046E0FB6A5A01FB69134403F510631A4686
:1016F8004FF67F339360FB6A5A01FB69134403F585
:1017080010631B68FA6A5101FA690A4402F510620B
:1017180023F400131360FB6A5A01FB69134403F5B1
:1017280030631A464FF67F339360FB6A5A01FB69B0
:10173800134403F530631B68FA6A5101FA690A44D5
:1017480002F5306223F400131360FB6A5A01FB6947
:10175800134403F530631B68FA6A5101FA690A44B5
:1017680002F5306243F000631360FB6A0133FB62E9
:101778007B685B68FA6A9A42B3D3FB6903F5006336
:10178800DB69FA6902F5006243F00113D3617B68F3
:101798001B6B002B16D0FB6903F50063D3F884306C
:1017A800FA6902F5006243F00B03C2F88430FB6962
:1017B80003F500635B6CFA6902F5006243F00B0302
:1017C800536415E0FB6903F500635B69FA6902F588
:1017D800006243F4005343F02B035361FB6903F5A4
:1017E80000631B69FA6902F5006243F00B03136199
:1017F800FB6903F500631B68FA6902F5006223F4CC
:10180800FE6313607B6818687B681B69D9B27B68C4
:1018180003F2C4431A4603F009F97B681B685A6946
:101828007B681B6802F480525A617B681B68184603
:1018380003F038F8034603F40053B3F5005F24D1EE
:101848007B681B68184603F0CEF87B681B6818464F
:1018580002F083F803461A467B68DA607B681C68E6
:1018680001F028FA01467B68DB68DBB21A4620469D
:1018780001F082FD786805F0E2FB7B681B685A6915
:101888007B681B6802F400525A617B681B68184623
:1018980003F008F8034603F00803082B0AD1786818
:1018A80005F0BFFB7B681B685A697B681B6802F000
:1018B80008025A617B681B68184602F0F3FF03466A
:1018C80003F08003802B22D13B6A9B6923F08002BE
:1018D8003B6A9A6101237B6214E079687A6A13464D
:1018E800DB0013449B000B4403F27F231B78012B7E
:1018F80005D17B6ADBB21946786800F027FB7B6A62
:1019080001337B627B685B687A6A9A42E5D37B68BD
:101918001B68184602F0C6FF034603F48013B3F5AC
:10192800801F3BD101237B622BE07B6A5A01FB6954
:10193800134403F510631B68BB6179687A6A134620
:10194800DB0013449B000B4440331B78012B15D15B
:10195800BB69002B12DA79687A6A1346DB001344F4
:101968009B000B443F3301221A707B6ADBB263F0A1
:101978007F03DBB21946786800F0E8FA7B6A013326
:101988007B627B685B687A6A9A42CED37B681B6805
:101998005A697B681B6802F480125A617B681B686D
:1019A800184602F07FFF034603F40013B3F5001F47
:1019B80055D101237B6245E07B6A5A01FB691344D8
:1019C80003F530631B68BB6179687A6A1346DB00EC
:1019D80013449B000B4403F520731B78012B2ED175
:1019E800BB69002B2BDABB6903F480327B68D3F820
:1019F800FC3403F001039A4221D179687A6A1346CC
:101A0800DB0013449B000B4403F27F2301221A706E
:101A18003B6A9B6943F080023B6A9A613B6A5B6957
:101A280003F08003002B0AD1FB6903F500635B68B0
:101A3800FA6902F5006243F40073536007E07B6AB9
:101A480001337B627B685B687A6A9A42B4D37B68AD
:101A58001B685A697B681B6802F400125A617B682C
:101A68001B68184602F01EFF034603F08043B3F1DB
:101A7800804F0AD1786805F063FB7B681B685A6958
:101A88007B681B6802F080425A617B681B681846B5
:101A980002F008FF034603F00403042B15D17B680A
:101AA8001B685B68BB61BB6903F00403002B02D0B1
:101AB800786805F053FB7B681B6859687B681B686E
:101AC800BA690A435A6000E000BF3437BD4690BD8A
:101AD80080B582B000AF78600B46FB707B6893F8E6
:101AE800BC34012B01D1022313E07B68012283F867
:101AF800BC247B68FA7883F838207B681B68FA78FE
:101B08001146184602F066FE7B68002283F8BC2462
:101B1800002318460837BD4680BD80B584B000AFA5
:101B28007860084611461A460346FB700B463B8010
:101B38001346BB700023FB7297F90330002B0FDAB2
:101B4800FB7803F00F021346DB0013449B00383385
:101B58007A6813440433FB60FB6801225A700FE073
:101B6800FB7803F00F021346DB0013449B0003F5D8
:101B78001E737A6813440433FB60FB6800225A70B2
:101B8800FB7803F00F03DAB2FB681A703A88FB6837
:101B9800DA60FB68BA781A71FB685B78002B04D0AE
:101BA800FB681B789AB2FB681A81BB78022B02D1BA
:101BB800FB6800225A717B6893F8BC34012B01D171
:101BC80002230EE07B68012283F8BC247B681B6833
:101BD800F968184601F0E6FE7B68002283F8BC2409
:101BE800FB7A18461037BD4680BD80B584B000AF7B
:101BF80078600B46FB7097F90330002B0FDAFB78FF
:101C080003F00F021346DB0013449B0038337A6855
:101C180013440433FB60FB6801225A700FE0FB7821
:101C280003F00F021346DB0013449B0003F51E73F9
:101C38007A6813440433FB60FB6800225A70FB780F
:101C480003F00F03DAB2FB681A707B6893F8BC34B0
:101C5800012B01D102230EE07B68012283F8BC240A
:101C68007B681B68F968184601F024FF7B6800222E
:101C780083F8BC24002318461037BD4680BD80B5C4
:101C880086B000AFF8607A603B600B46FB72FB7A67
:101C980003F00F021346DB0013449B0003F51E7389
:101CA800FA68134404337B617B697A681A617B693B
:101CB8003A689A617B6900221A627B6900225A702D
:101CC800FB7A03F00F03DAB27B691A70FB681B69B1
:101CD800012B02D17A687B695A61FB7A03F00F0302
:101CE800002B09D1FB681868FB681B69DBB21A4630
:101CF800796902F003FA08E0FB681868FB681B6959
:101D0800DBB21A46796901F0B1FF0023184618378B
:101D1800BD4680BD80B483B000AF78600B46FB70D1
:101D2800FB7803F00F0279681346DB0013449B002D
:101D38000B4403F527731B6818460C37BD465DF83E
:101D4800047B704780B586B000AFF8607A603B606E
:101D58000B46FB72FB7A03F00F021346DB001344B9
:101D68009B003833FA68134404337B617B697A68D3
:101D78001A617B693A689A617B6900221A627B69F9
:101D880001225A70FB7A03F00F03DAB27B691A70EA
:101D9800FB681B69012B02D17A687B695A61FB7A5F
:101DA80003F00F03002B09D1FB681868FB681B6957
:101DB800DBB21A46796902F0A1F908E0FB681868F5
:101DC800FB681B69DBB21A46796901F04FFF0023F3
:101DD80018461837BD4680BD80B584B000AF78601E
:101DE8000B46FB70FB7803F00F027B685B689A4236
:101DF80001D9012350E097F90330002B0FDAFB7863
:101E080003F00F021346DB0013449B0038337A6853
:101E180013440433FB60FB6801225A700DE0FA7822
:101E28001346DB0013449B0003F51E737A681344C2
:101E38000433FB60FB6800225A70FB6801229A7029
:101E4800FB7803F00F03DAB2FB681A707B6893F82B
:101E5800BC34012B01D102231EE07B68012283F8E8
:101E6800BC247B681B68F968184602F0DFFBFB7826
:101E780003F00F03002B0AD17B6818687B681B6985
:101E8800D9B27B6803F2C4431A4602F0CFFD7B68DF
:101E9800002283F8BC24002318461037BD4680BDB5
:101EA80080B584B000AF78600B46FB70FB7803F018
:101EB8000F027B685B689A4201D9012342E097F9D7
:101EC8000330002B0FDAFB7803F00F021346DB0018
:101ED80013449B0038337A6813440433FB60FB686F
:101EE80001225A700FE0FB7803F00F021346DB0063
:101EF80013449B0003F51E737A6813440433FB6094
:101F0800FB6800225A70FB6800229A70FB7803F085
:101F18000F03DAB2FB681A707B6893F8BC34012BA4
:101F280001D102230EE07B68012283F8BC247B6880
:101F38001B68F968184602F0E7FB7B68002283F803
:101F4800BC24002318461037BD4680BD80B584B038
:101F580000AF78600B46FB7097F90330002B0CDA62
:101F6800FB7803F00F021346DB0013449B00383361
:101F78007A6813440433FB600CE0FB7803F00F022B
:101F88001346DB0013449B0003F51E737A68134461
:101F98000433FB607B681B68F968184602F006FA90
:101FA8000346FB72FB7A18461037BD4680BD80B5E4
:101FB8008AB002AF786039607B681B687B617B6997
:101FC8003B613A681346DB0013449B0038337A6858
:101FD80013440433FB60FB681A6AFB689B699A42E6
:101FE80001D901236CE0FB689A69FB681B6AD31A64
:101FF800FB61FB68DB68FA699A4202D9FB68DB6817
:10200800FB61FB6903339B08BB612BE0FB689A69A2
:10201800FB681B6AD31AFB61FB68DB68FA699A42A2
:1020280002D9FB68DB68FB61FB6903339B08BB6172
:10203800FB6819693B68DAB2FB6998B27B681B696F
:10204800DBB200930346786902F05AFAFB681A6912
:10205800FB691A44FB681A61FB681A6AFB691A442F
:10206800FB681A623B685A013B69134403F5106325
:102078009B699BB2BA699A4209D8FB681A6AFB68DD
:102088009B699A4203D2FB689B69002BBED1FB680F
:102098009A69FB681B6A9A4211D83B6803F00F03E0
:1020A800012202FA03F3BB603B6903F500635A6B34
:1020B800BB68DB43396901F5006113404B630023BA
:1020C80018462037BD4680BD80B588B000AF78601F
:1020D80039607B681B68FB61FB69BB61FB693C334A
:1020E80004331B687B613B685A01BB69134403F5E1
:1020F80030639B683B617B681B69012B7BD13B6923
:1021080003F00803002B15D07B69614A934240F223
:10211800B9803B6903F40043002B00F0B3803B68AF
:102128005A01BB69134403F530631A464FF4004360
:102138009360A7E03B6903F02003002B09D03B68BC
:102148005A01BB69134403F530631A462023936090
:1021580098E03B6903F02803002B40F093807B69EB
:102168004B4A93420FD93B6903F40043002B0AD032
:102178003B685A01BB69134403F530631A464FF4B0
:10218800004393607EE03A681346DB0013449B00EB
:1021980003F51E737A6813440433FB60FB68DA693D
:1021A8003B685901BB690B4403F530631B69C3F3F2
:1021B8001203D21AFB681A623B68002B14D1FB6821
:1021C8009B69002B09D17B6818687B6803F2C443BC
:1021D8001A46012102F02AFC06E0FB681A69FB682E
:1021E8001B6A1A44FB681A613B68DBB219467868B7
:1021F80004F0E2FE46E07B69264A934224D13B691B
:1022080003F40043002B0AD03B685A01BB6913440E
:1022180003F530631A464FF40043936032E03B699C
:1022280003F02003002B08D03B685A01BB69134414
:1022380003F530631A46202393603B68DBB21946E6
:10224800786804F0B9FE1DE03B68002B14D179686A
:102258003A681346DB0013449B000B4403F52573CF
:102268001B68002B08D17B6818687B6803F2C4439D
:102278001A46002102F0DAFB3B68DBB2194678689F
:1022880004F09AFE002318462037BD4680BD00BFE3
:102298000A30544F0A31544F80B586B000AF786089
:1022A80039607B681B687B617B693B617B693C3378
:1022B80004331B68FB603B685A013B69134403F510
:1022C80030639B68BB60FB68154A93420ED9BB68B4
:1022D80003F40043002B09D03B685A013B691344BF
:1022E80003F530631A464FF400439360786804F0AE
:1022F80051FEFB680A4A93420CD97B681B69012B83
:1023080008D17B6818687B6803F2C4431A46012128
:1023180002F08CFB002318461837BD4680BD00BF6D
:102328000A30544F80B485B000AF78600B46FB701C
:1023380013463B807B681B685B6ABB60FB78002B9D
:1023480007D13B8819047B681B68BA680A439A62FC
:1023580028E07B681B689B6A1B0CBA681344BB6047
:102368000023FB730DE07B681A68FB7B40339B00FE
:1023780013445B681B0CBA681344BB60FB7B0133D6
:10238800FB73FA7BFB78013B9A42ECD33B88180439
:102398007B681968FB78013BBA68024340339B00AD
:1023A8000B445A60002318461437BD465DF8047B79
:1023B800704780B483B000AF78600B467B807B6841
:1023C8001B687A885A62002318460C37BD465DF8A8
:1023D800047B704780B483B000AF78600B46FB7015
:1023E80000BF0C37BD465DF8047B704780B586B0EA
:1023F80000AF78607B68002B01D1012367E27B681E
:102408001B6803F00103002B75D0884B9B6803F011
:102418000C03042B0CD0854B9B6803F00C03082B92
:1024280012D1824B5B6803F48003B3F5800F0BD1A4
:102438007E4B1B6803F40033002B5BD07B685B6822
:10244800002B57D1012342E27B685B68B3F5803FDC
:1024580006D1764B1B68754A43F4803313601DE040
:102468007B685B68B3F5A02F0CD1704B1B686F4A73
:1024780043F4802313606D4B1B686C4A43F480332C
:1024880013600BE0694B1B68684A23F480331360C0
:10249800664B1B68654A23F4802313607B685B687E
:1024A800002B13D0FEF75EFA386108E0FEF75AFAFF
:1024B80002463B69D31A642B01D9032307E25B4B1D
:1024C8001B6803F40033002BF0D014E0FEF74AFA3F
:1024D800386108E0FEF746FA02463B69D31A642BD6
:1024E80001D90323F3E1514B1B6803F40033002B9C
:1024F800F0D100E000BF7B681B6803F00203002BEB
:1025080063D04A4B9B6803F00C03002B0BD0474B5E
:102518009B6803F00C03082B1CD1444B5B6803F445
:102528008003002B16D1414B1B6803F00203002BDC
:1025380005D07B68DB68012B01D00123C7E13B4B49
:102548001B6823F0F8027B681B69DB0037491343DB
:102558000B603AE07B68DB68002B20D0344B01220B
:102568001A60FEF7FFF9386108E0FEF7FBF902464A
:102578003B69D31A022B01D90323A8E12B4B1B6813
:1025880003F00203002BF0D0284B1B6823F0F8025D
:102598007B681B69DB00254913430B6015E0244B5E
:1025A80000221A60FEF7DEF9386108E0FEF7DAF972
:1025B80002463B69D31A022B01D9032387E11B4B3F
:1025C8001B6803F00203002BF0D17B681B6803F043
:1025D8000803002B36D07B685B69002B16D0154B9F
:1025E80001221A60FEF7BEF9386108E0FEF7BAF971
:1025F80002463B69D31A022B01D9032367E10B4B2F
:102608005B6F03F00203002BF0D01BE0094B0022A4
:102618001A60FEF7A7F938610EE0FEF7A3F9024643
:102628003B69D31A022B07D9032350E10038024033
:1026380000004742800E4742884B5B6F03F002035D
:10264800002BEAD17B681B6803F00403002B00F021
:1026580097800023FB75814B1B6C03F08053002B84
:102668000FD10023BB607D4B1B6C7C4A43F0805329
:1026780013647A4B1B6C03F08053BB60BB68012367
:10268800FB75774B1B6803F48073002B18D1744BD0
:102698001B68734A43F480731360FEF763F938616B
:1026A80008E0FEF75FF902463B69D31A022B01D90D
:1026B80003230CE16A4B1B6803F48073002BF0D0F2
:1026C8007B689B68012B06D1644B1B6F634A43F000
:1026D800010313671CE07B689B68052B0CD15F4BDB
:1026E8001B6F5E4A43F0040313675C4B1B6F5B4A26
:1026F80043F0010313670BE0584B1B6F574A23F055
:1027080001031367554B1B6F544A23F004031367E7
:102718007B689B68002B15D0FEF724F938610AE026
:10272800FEF720F902463B69D31A41F288329342F8
:1027380001D90323CBE0494B1B6F03F00203002BA5
:10274800EED014E0FEF70EF938610AE0FEF70AF958
:1027580002463B69D31A41F28832934201D90323D6
:10276800B5E03E4B1B6F03F00203002BEED1FB7D5F
:10277800012B05D1394B1B6C384A23F08053136465
:102788007B689B69002B00F0A180344B9B6803F0A9
:102798000C03082B5CD07B689B69022B41D1314B21
:1027A80000221A60FEF7DEF8386108E0FEF7DAF872
:1027B80002463B69D31A022B01D9032387E0274B32
:1027C8001B6803F00073002BF0D17B68DA697B6823
:1027D8001B6A1A437B685B6A9B011A437B689B6A86
:1027E8005B08013B1B041A437B68DB6A1B061B4919
:1027F80013434B601B4B01221A60FEF7B3F8386194
:1028080008E0FEF7AFF802463B69D31A022B01D95C
:1028180003235CE0114B1B6803F00073002BF0D01E
:1028280054E0104B00221A60FEF79CF8386108E06B
:10283800FEF798F802463B69D31A022B01D9032305
:1028480045E0064B1B6803F00073002BF0D13DE018
:102858007B689B69012B07D1012338E000380240CF
:1028680000700040600047421B4B5B68FB607B6860
:102878009B69012B28D0FB6803F480027B68DB6925
:102888009A4221D1FB6803F03F027B681B6A9A4297
:102898001AD1FA6847F6C07313407A68526A9201EF
:1028A800934211D1FB6803F440327B689B6A5B0852
:1028B800013B1B049A4207D1FB6803F070627B68F6
:1028C800DB6A1B069A4201D0012300E00023184668
:1028D8001837BD4680BD00BF0038024080B584B0BF
:1028E80000AF786039607B68002B01D10123CCE010
:1028F800684B1B6803F007033A689A420CD9654B8A
:102908003A68D2B21A70634B1B6803F007033A683F
:102918009A4201D00123B8E07B681B6803F00203E8
:10292800002B20D07B681B6803F00403002B05D024
:10293800594B9B68584A43F4E05393607B681B6883
:1029480003F00803002B05D0534B9B68524A43F40D
:1029580060439360504B9B6823F0F0027B689B6850
:102968004D4913438B607B681B6803F00103002B00
:1029780044D07B685B68012B07D1474B1B6803F485
:102988000033002B19D101237FE07B685B68022BA1
:1029980003D07B685B68032B07D13F4B1B6803F0B0
:1029A8000073002B09D101236FE03B4B1B6803F038
:1029B8000203002B01D1012367E0374B9B6823F00A
:1029C80003027B685B68344913438B60FDF7CAFFD9
:1029D800F8600AE0FDF7C6FF0246FB68D31A41F229
:1029E8008832934201D903234FE02B4B9B6803F0B5
:1029F8000C027B685B689B009A42EBD1254B1B68F5
:102A080003F007033A689A420CD2224B3A68D2B2D2
:102A18001A70204B1B6803F007033A689A4201D0EA
:102A2800012332E07B681B6803F00403002B08D005
:102A3800194B9B6823F4E0527B68DB681649134303
:102A48008B607B681B6803F00803002B09D0124BCE
:102A58009B6823F460427B681B69DB000E491343C3
:102A68008B6000F021F802460B4B9B681B0903F0B2
:102A78000F030A49CB5C22FA03F3094A1360094B96
:102A88001B681846FDF740FE002318461037BD4660
:102A980080BD00BF003C024000380240D8750008E5
:102AA80004000020080000202DE9B04F94B000AFCA
:102AB80000237B640023FB6400233B640023BB6486
:102AC800794B9B6803F00C03082B0DD0082B00F200
:102AD800E180002B02D0042B03D0DBE0734BBB64F6
:102AE800DBE0734BBB64D8E06F4B5B6803F03F03DC
:102AF8007B646D4B5B6803F48003002B63D06A4BE7
:102B08005B689B090022BB63FA63BB6BC3F30803D2
:102B18003B6300237B63D7E90C4522462B464FF0E5
:102B280000004FF00001590141EAD261500102460C
:102B38000B462146511A3961294663EB01037B6133
:102B48004FF000024FF00003D7E904AB59468B0160
:102B5800514643EA916351468A015146B2EB010856
:102B6800594663EB01094FF000024FF000034FEAAA
:102B7800C90343EA58734FEAC80290469946234668
:102B880018EB0303BB602B4649EB0303FB604FF0D4
:102B980000024FF00003D7E9024529464B022146BF
:102BA80043EAD15321464A02104619467B6C00225B
:102BB800BB62FA62D7E90A23FDF70AFB02460B4615
:102BC8001346FB6458E0384B5B689B0900221846A3
:102BD8001146C0F308033B6200237B62D7E90889EA
:102BE80042464B464FF000004FF00001590141EAC0
:102BF800D261500102460B464146B2EB010A4946F2
:102C080063EB010B4FF000024FF000034FEA8B1308
:102C180043EA9A634FEA8A12B2EB0A0463EB0B05A4
:102C28004FF000024FF00003EB0043EA5473E20058
:102C380014461D464346E3183B604B4645EB0303E9
:102C48007B604FF000024FF00003D7E900452946AA
:102C58008B02214643EA915321468A0210461946BF
:102C68007B6C0022BB61FA61D7E90623FDF7B0FA55
:102C780002460B461346FB640B4B5B681B0C03F0C8
:102C8800030301335B003B64FA6C3B6CB2FBF3F368
:102C9800BB6402E0054BBB6400BFBB6C18465037F1
:102CA800BD46BDE8B08F00BF003802400024F400E4
:102CB80000127A0080B400AF034B1B681846BD466B
:102CC8005DF8047B704700BF0400002080B500AFAA
:102CD800FFF7F0FF0246054B9B689B0A03F00703CA
:102CE8000349CB5C22FA03F3184680BD0038024042
:102CF800E875000880B483B000AF786039607B68FD
:102D08000F221A60124B9B6803F003027B685A601B
:102D18000F4B9B6803F0F0027B689A600C4B9B6832
:102D280003F4E0527B68DA60094B9B68DB0803F424
:102D3800E0527B681A61074B1B6803F007023B6887
:102D48001A6000BF0C37BD465DF8047B704700BFB2
:102D580000380240003C024080B582B000AF786085
:102D68007B68002B01D1012341E07B6893F83D305B
:102D7800DBB2002B06D17B68002283F83C20786800
:102D880000F039F87B68022283F83D207B681A68D6
:102D98007B6804331946104600F0D8F97B68012295
:102DA80083F846207B68012283F83E207B68012255
:102DB80083F83F207B68012283F840207B6801224A
:102DC80083F841207B68012283F842207B68012236
:102DD80083F843207B68012283F844207B68012222
:102DE80083F845207B68012283F83D20002318469C
:102DF8000837BD4680BD80B483B000AF786000BF9F
:102E08000C37BD465DF8047B7047000080B485B080
:102E180000AF78607B6893F83D30DBB2012B01D0BE
:102E280001234EE07B68022283F83D207B681B6803
:102E3800DA687B681B6842F00102DA607B681B680D
:102E4800234A934222D07B681B68B3F1804F1DD080
:102E58007B681B681F4A934218D07B681B681E4A10
:102E6800934213D07B681B681C4A93420ED07B6840
:102E78001B681B4A934209D07B681B68194A934216
:102E880004D07B681B68184A934211D17B681B6881
:102E98009B6803F00703FB60FB68062B10D07B6878
:102EA8001B681A687B681B6842F001021A6007E019
:102EB8007B681B681A687B681B6842F001021A600D
:102EC800002318461437BD465DF8047B704700BFE1
:102ED800000001400004004000080040000C0040D1
:102EE80000040140004001400018004080B582B055
:102EF80000AF78607B681B681B6903F00203022B34
:102F080022D17B681B68DB6803F00203022B1BD10C
:102F18007B681B686FF002021A617B6801221A77CE
:102F28007B681B689B6903F00303002B03D0786858
:102F380000F0EEF805E0786800F0E0F8786800F056
:102F4800F1F87B6800221A777B681B681B6903F01D
:102F58000403042B22D17B681B68DB6803F004039D
:102F6800042B1BD17B681B686FF004021A617B6815
:102F780002221A777B681B689B6903F44073002B55
:102F880003D0786800F0C4F805E0786800F0B6F877
:102F9800786800F0C7F87B6800221A777B681B689E
:102FA8001B6903F00803082B22D17B681B68DB68C8
:102FB80003F00803082B1BD17B681B686FF008021D
:102FC8001A617B6804221A777B681B68DB6903F047
:102FD8000303002B03D0786800F09AF805E07868BE
:102FE80000F08CF8786800F09DF87B6800221A776A
:102FF8007B681B681B6903F01003102B22D17B68C8
:103008001B68DB6803F01003102B1BD17B681B685F
:103018006FF010021A617B6808221A777B681B68B8
:10302800DB6903F44073002B03D0786800F070F874
:1030380005E0786800F062F8786800F073F87B685B
:1030480000221A777B681B681B6903F00103012BB8
:103058000ED17B681B68DB6803F00103012B07D1E5
:103068007B681B686FF001021A617868FDF70CFB3A
:103078007B681B681B6903F08003802B0ED17B687B
:103088001B68DB6803F08003802B07D17B681B6813
:103098006FF080021A61786800F002F97B681B689B
:1030A8001B6903F04003402B0ED17B681B68DB686B
:1030B80003F04003402B07D17B681B686FF0400288
:1030C8001A61786800F038F87B681B681B6903F0A0
:1030D8002003202B0ED17B681B68DB6803F02003DC
:1030E800202B07D17B681B686FF020021A61786873
:1030F80000F0CCF800BF0837BD4680BD80B483B06F
:1031080000AF786000BF0C37BD465DF8047B7047A0
:1031180080B483B000AF786000BF0C37BD465DF85F
:10312800047B704780B483B000AF786000BF0C3771
:10313800BD465DF8047B704780B483B000AF78600B
:1031480000BF0C37BD465DF8047B704780B485B07E
:1031580000AF786039607B681B68FB607B68404A19
:10316800934213D07B68B3F1804F0FD07B683D4A00
:1031780093420BD07B683C4A934207D07B683B4A1A
:10318800934203D07B683A4A934208D1FB6823F004
:103198007003FB603B685B68FA681343FB607B68FD
:1031A8002F4A93422BD07B68B3F1804F27D07B689E
:1031B8002C4A934223D07B682B4A93421FD07B68CA
:1031C8002A4A93421BD07B68294A934217D07B68CE
:1031D800284A934213D07B68274A93420FD07B68D2
:1031E800264A93420BD07B68254A934207D07B68D6
:1031F800244A934203D07B68234A934208D1FB6850
:1032080023F44073FB603B68DB68FA681343FB6098
:10321800FB6823F080023B685B691343FB607B68B3
:10322800FA681A603B689A687B68DA623B681A68D1
:103238007B689A627B680A4A934203D07B680C4A8F
:10324800934203D13B681A697B681A637B68012241
:103258005A6100BF1437BD465DF8047B704700BF54
:10326800000001400004004000080040000C00403D
:103278000004014000400140004401400048014072
:1032880000180040001C00400020004080B483B0BB
:1032980000AF786000BF0C37BD465DF8047B70470F
:1032A80080B483B000AF786000BF0C37BD465DF8CE
:1032B800047B704784B080B584B000AF786007F1B4
:1032C8001C0080E80E003B6B012B22D17B689B6BB6
:1032D80023F480327B689A637B68DB6823F4840379
:1032E80023F040037A68D3607B68DB6823F44012DC
:1032F8007B68DA60FB6C012B05D17B68DB6843F4E3
:1033080080127B68DA60786801F0EEFB0346FB7395
:103318001AE07B68DB6843F040027B68DA60786813
:1033280001F0E2FB0346FB733B6C002B06D17B6884
:103338009B6B43F480327B689A6305E07B689B6BE8
:1033480023F480327B689A63BB6A012B0BD17B68BC
:103358009B6843F006027B689A607B689B6843F031
:1033680020027B689A60FB7B18461037BD46BDE893
:10337800804004B07047000080B487B000AFF860A8
:10338800B9601346FB71FB79022B65D1BB68414AD2
:10339800934206D9BB68404A934202D20F237B610D
:1033A80062E0BB683C4A934206D3BB683B4A9342FF
:1033B80002D20E237B6157E0BB68384A934206D39A
:1033C800BB68374A934202D20D237B614CE0BB684D
:1033D800334A934206D3BB68324A934202D80C233D
:1033E8007B6141E0BB682F4A934206D9BB682E4AED
:1033F800934202D80B237B6136E0BB682A4A93428A
:1034080006D9BB68294A934202D80A237B612BE07C
:10341800BB68264A934206D9BB68254A934202D222
:1034280009237B6120E0BB68214A934206D3BB682D
:10343800204A934202D808237B6115E0BB681D4AE5
:10344800934206D9BB681C4A934202D207237B6188
:103458000AE006237B6107E0FB79002B02D10923F0
:103468007B6101E009237B61FB68DB6823F4705210
:10347800FB68DA60FB68DA687B699B0203F47053C7
:103488001A43FB68DA60002318461C37BD465DF80E
:10349800047B7047BFACD800C0E1E4000024F4000E
:1034A800807306019F491A01FF2C31013FA44C018A
:1034B80000366E011FABA6010048E80180B483B056
:1034C80000AF78607B689B6843F001027B689A6074
:1034D800002318460C37BD465DF8047B704780B45E
:1034E80083B000AF78607B689B6823F001027B683B
:1034F8009A60002318460C37BD465DF8047B704778
:1035080080B584B000AF78600B46FB700023FB6089
:103518007B68DB6823F0C0427B68DA60FB78012BAC
:1035280015D17B68DB6843F000527B68DA600120C4
:10353800FDF724FAFB680133FB60786801F045FA6F
:103548000346012B1ED0FB68312BF0D91AE0FB781B
:10355800002B15D17B68DB6843F080427B68DA601A
:103568000120FDF70BFAFB680133FB60786801F076
:103578002CFA0346002B05D0FB68312BF0D901E06B
:10358800012305E0FB68322B01D1012300E0002371
:1035980018461037BD4680BD84B080B586B000AFF0
:1035A800786007F1240080E80E000023FB757B6833
:1035B800FB6000233B6109E07A683B6940339B006C
:1035C800134400225A603B6901333B613B690E2B6F
:1035D800F2D9FB6C002B1CD1FB6803F500635B6818
:1035E800FA6802F5006243F0020353607B689B6B44
:1035F80043F400127B689A637B689B6B23F4002278
:103608007B689A637B689B6B23F480227B689A6350
:103618000BE07B689B6B23F400127B689A637B68E2
:103628009B6B43F400227B689A63FB6803F5606335
:103638001A4600231360FB6803F500631946FB680C
:1036480003F500631A460B681360BB6B012B0CD1A2
:10365800FB6A002B04D10021786800F065F908E0C6
:103668000121786800F060F903E00321786800F030
:103678005BF91021786800F0F3F80346002B01D0BD
:103688000123FB75786800F01FF90346002B01D071
:103698000123FB75FB6803F500631A4600231361D9
:1036A800FB6803F500631A4600235361FB6803F5C2
:1036B80000631A460023D36100233B6143E03B6962
:1036C8005A01FB68134403F510631B6803F00043B9
:1036D800B3F1004F18D13B69002B0AD13B695A015D
:1036E800FB68134403F510631A464FF00063136038
:1036F80013E03B695A01FB68134403F510631A464B
:103708004FF09043136008E03B695A01FB6813448B
:1037180003F510631A46002313603B695A01FB68DE
:10372800134403F510631A46002313613B695A01D9
:10373800FB68134403F510631A464FF67F33936012
:103748003B6901333B617B6A3A699A42B7D30023EC
:103758003B6143E03B695A01FB68134403F530635E
:103768001B6803F00043B3F1004F18D13B69002BED
:103778000AD13B695A01FB68134403F530631A46C2
:103788004FF00063136013E03B695A01FB68134470
:1037980003F530631A464FF09043136008E03B6925
:1037A8005A01FB68134403F530631A46002313607B
:1037B8003B695A01FB68134403F530631A4600233A
:1037C80013613B695A01FB68134403F530631A46D9
:1037D8004FF67F3393603B6901333B617B6A3A69FB
:1037E8009A42B7D3FB6803F500631B69FA6802F5D0
:1037F800006223F4807313617B6800229A617B68FE
:103808006FF080425A613B6B002B05D17B689B6946
:1038180043F010027B689A617B689A690F4B1343E7
:103828007A689361FB6B002B05D07B689B6943F03A
:1038380008027B689A61FB6C012B07D17B689B6946
:1038480043F0804343F004037A689361FB7D184694
:103858001837BD46BDE8804004B0704700383C804A
:1038680080B485B000AF786039600023FB60FB68E6
:103878000133FB60FB68134A934201D903231BE021
:103888007B681B69002BF2DA0023FB603B689B0115
:1038980043F020027B681A61FB680133FB60FB6818
:1038A800084A934201D9032306E07B681B6903F0A9
:1038B8002003202BF0D0002318461437BD465DF8AE
:1038C800047B7047400D030080B485B000AF78607A
:1038D8000023FB60FB680133FB60FB68114A9342DD
:1038E80001D9032318E07B681B69002BF2DA002357
:1038F800FB607B6810221A61FB680133FB60FB6880
:10390800084A934201D9032306E07B681B6903F048
:103918001003102BF0D0002318461437BD465DF86D
:10392800047B7047400D030080B485B000AF786019
:103938000B46FB707B68FB60FB6803F500631A6845
:10394800FB78F96801F5006113430B600023184602
:103958001437BD465DF8047B704780B487B000AF6C
:1039680078607B683B613B6903F500639B6803F003
:103978000603FB60FB68002B02D10023FB750AE0FD
:10398800FB68022B02D0FB68062B02D10223FB75D1
:1039980001E00F23FB75FB7D18461C37BD465DF81B
:1039A800047B704780B485B000AF786039607B686D
:1039B800FB603B681B78BB603B685B78012B3AD1A6
:1039C800FB6803F50063DA693B681B7803F00F03B3
:1039D800012101FA03F39BB2F96801F50061134371
:1039E800CB61BB685A01FB68134403F510631B687D
:1039F80003F40043002B55D1BB685A01FB681344FC
:103A080003F510631A683B68DB68C3F30A013B6877
:103A18001B799B041943BB689B050B431343BA6886
:103A28005101FA680A4402F5106243F0805343F4E6
:103A38000043136036E0FB6803F50063DA693B680E
:103A48001B7803F00F03012101FA03F31B04F96843
:103A580001F500611343CB61BB685A01FB6813444D
:103A680003F530631B6803F40043002B1AD1BB68CD
:103A78005A01FB68134403F530631A683B68DB6836
:103A8800C3F30A013B681B799B040B431343BA68D1
:103A98005101FA680A4402F5306243F0805343F456
:103AA80000431360002318461437BD465DF8047BB5
:103AB8007047000080B485B000AF786039607B68DB
:103AC800FB603B681B78BB603B685B78012B61D16E
:103AD800BB685A01FB68134403F510631B6803F0C5
:103AE8000043B3F1004F1FD1BB685A01FB68134470
:103AF80003F510631B68BA685101FA680A4402F5B5
:103B0800106243F000631360BB685A01FB681344FA
:103B180003F510631B68BA685101FA680A4402F594
:103B2800106243F080431360FB6803F50063DA6BAF
:103B38003B681B7803F00F03012101FA03F39BB2E2
:103B4800DB43F96801F500611340CB63FB6803F5BB
:103B58000063DA693B681B7803F00F03012101FA5F
:103B680003F39BB2DB43F96801F500611340CB61B5
:103B7800BB685A01FB68134403F510631A68BB68F5
:103B88005901FB680B4403F510631946354B134084
:103B98000B6060E0BB685A01FB68134403F53063AF
:103BA8001B6803F00043B3F1004F1FD1BB685A01F3
:103BB800FB68134403F530631B68BA685101FA685F
:103BC8000A4402F5306243F000631360BB685A018F
:103BD800FB68134403F530631B68BA685101FA683F
:103BE8000A4402F5306243F080431360FB6803F532
:103BF8000063DA6B3B681B7803F00F03012101FABD
:103C080003F31B04DB43F96801F500611340CB6340
:103C1800FB6803F50063DA693B681B7803F00F0360
:103C2800012101FA03F31B04DB43F96801F5006184
:103C38001340CB61BB685A01FB68134403F530633A
:103C48001A68BB685901FB680B4403F530631946D1
:103C5800054B13400B60002318461437BD465DF82A
:103C6800047B7047007833EC0078F3EF80B58AB0B6
:103C780002AFF860B9601346FB71FB68FB61BB6873
:103C88001B78BB61BB685B78012B40F05C81BB682B
:103C98009B69002B32D1BB695A01FB69134403F5B8
:103CA80010631B69BA695101FA690A4402F5106286
:103CB80023F0FF5323F4C0131361BB695A01FB6956
:103CC800134403F510631B69BA695101FA690A4480
:103CD80002F5106243F400231361BB695A01FB69C2
:103CE800134403F510631B69BA695101FA690A4460
:103CF80002F51062DB0CDB04136174E0BB695A0146
:103D0800FB69134403F510631B69BA695101FA6929
:103D18000A4402F51062DB0CDB041361BB695A012B
:103D2800FB69134403F510631B69BA695101FA6909
:103D38000A4402F5106223F0FF5323F4C013136101
:103D4800BB695A01FB69134403F510631A69BB6820
:103D58009969BB68DB680B44591EBB68DB68B1FB1B
:103D6800F3F3D9049D4B0B40B9694801F969014443
:103D780001F5106113430B61BB695A01FB691344D8
:103D880003F510631A69BB689B69C3F31203B96929
:103D98004801F969014401F5106113430B61BB68DF
:103DA8001B79012B1FD1BB695A01FB69134403F529
:103DB80010631B69BA695101FA690A4402F5106275
:103DC80023F0C0431361BB695A01FB69134403F52F
:103DD80010631B69BA695101FA690A4402F5106255
:103DE80043F000531361FB79012B4BD1BB685B692E
:103DF800002B09D0BB695A01FB69134403F5106312
:103E08001A46BB685B695361BB681B79012B28D1D3
:103E1800FB6903F500639B6803F48073002B10D1E2
:103E2800BB695A01FB69134403F510631B68BA693F
:103E38005101FA690A4402F5106243F00053136015
:103E48000FE0BB695A01FB69134403F510631B6853
:103E5800BA695101FA690A4402F5106243F08053C5
:103E68001360BB695A01FB69134403F510631B68AF
:103E7800BA695101FA690A4402F5106243F0044331
:103E8800136033E1BB695A01FB69134403F51063FE
:103E98001B68BA695101FA690A4402F5106243F0D5
:103EA80004431360BB681B79012B15D0BB689B6961
:103EB800002B00F01B81FB6903F500635A6BBB689C
:103EC8001B7803F00F03012101FA03F3F96901F5E7
:103ED800006113434B6309E1FB6903F500639B68C9
:103EE80003F48073002B10D1BB695A01FB6913449A
:103EF80003F510631B68BA695101FA690A4402F5AF
:103F0800106243F0005313600FE0BB695A01FB696C
:103F1800134403F510631B68BA695101FA690A442E
:103F280002F5106243F080531360BB681969BB68DF
:103F38001A78BB689B6998B2FB7900930346F868C6
:103F480000F0DEFAD2E0BB695A01FB69134403F5BD
:103F580030631B69BA695101FA690A4402F5306293
:103F6800DB0CDB041361BB695A01FB69134403F5DD
:103F780030631B69BA695101FA690A4402F5306273
:103F880023F0FF5323F4C0131361BB689B69002B14
:103F980026D1BB695A01FB69134403F530631A69DA
:103FA800BB68DB68C3F31203B9694801F9690144C6
:103FB80001F5306113430B61BB695A01FB69134476
:103FC80003F530631B69BA695101FA690A4402F5BD
:103FD800306243F4002313613AE000BF0000F81F89
:103FE800BB689A69BB68DB6813445A1EBB68DB6808
:103FF800B2FBF3F3FB82BB68DB68FA8A03FB02F2CD
:10400800BB68DA61BB695A01FB69134403F5306385
:104018001A69FB8AD904384B0B40B9694801F96918
:10402800014401F5306113430B61BB695A01FB6917
:10403800134403F530631A69BB68DB69C3F31203E1
:10404800B9694801F969014401F5306113430B610D
:10405800FB79012B0DD1BB681B69002B09D0BB680C
:104068001969BB695A01FB69134403F530630A46B1
:104078005A61BB681B79012B28D1FB6903F50063E2
:104088009B6803F48073002B10D1BB695A01FB694C
:10409800134403F530631B68BA695101FA690A448D
:1040A80002F5306243F0005313600FE0BB695A0118
:1040B800FB69134403F530631B68BA695101FA6957
:1040C8000A4402F5306243F080531360BB695A0119
:1040D800FB69134403F530631B68BA695101FA6937
:1040E8000A4402F5306243F0044313600023184683
:1040F8002037BD4680BD00BF0000F81F80B487B0E0
:1041080000AFF860B9601346FB71FB687B61BB6860
:104118001B783B61BB685B78012B40F0CE80BB68A5
:104128009B69002B32D13B695A017B69134403F523
:1041380010631B693A6951017A690A4402F51062F1
:1041480023F0FF5323F4C01313613B695A017B69C1
:10415800134403F510631B693A6951017A690A44EB
:1041680002F5106243F4002313613B695A017B692D
:10417800134403F510631B693A6951017A690A44CB
:1041880002F51062DB0CDB0413614EE03B695A0157
:104198007B69134403F510631B693A6951017A6915
:1041A8000A4402F51062DB0CDB0413613B695A0117
:1041B8007B69134403F510631B693A6951017A69F5
:1041C8000A4402F5106223F0FF5323F4C01313616D
:1041D800BB689A69BB68DB689A4203D9BB68DA682E
:1041E800BB689A613B695A017B69134403F5106304
:1041F8001B693A6951017A690A4402F5106243F46D
:10420800002313613B695A017B69134403F510636A
:104218001A69BB689B69C3F3120339694801796954
:10422800014401F5106113430B61FB79012B1ED189
:10423800BB685B69002B09D03B695A017B69134451
:1042480003F510631A46BB685B6953613B695A0101
:104258007B69134403F510631B683A6951017A6955
:104268000A4402F5106243F00443136097E03B6987
:104278005A017B69134403F510631B683A695101BD
:104288007A690A4402F5106243F004431360BB687C
:104298009B69002B00F083807B6903F500635A6BF0
:1042A800BB681B7803F00F03012101FA03F3796956
:1042B80001F5006113434B6371E03B695A017B6967
:1042C800134403F530631B693A6951017A690A445A
:1042D80002F53062DB0CDB0413613B695A017B6930
:1042E800134403F530631B693A6951017A690A443A
:1042F80002F5306223F0FF5323F4C0131361BB6847
:104308009B69002B03D0BB68DA68BB689A61BB68FD
:10431800DA68BB68DA613B695A017B69134403F5C3
:1043280030631B693A6951017A690A4402F53062BF
:1043380043F4002313613B695A017B69134403F575
:1043480030631A69BB68DB69C3F312033969480132
:104358007969014401F5306113430B61FB79012B45
:104368000DD1BB681B69002B09D0BB6819693B6973
:104378005A017B69134403F530630A465A613B6965
:104388005A017B69134403F530631B683A6951018C
:104398007A690A4402F5306243F00443136000234B
:1043A80018461C37BD465DF8047B704780B487B05B
:1043B80000AF786039600023FB600023FB757B68E1
:1043C8003B613B685B78012B4AD13B681B785A01FB
:1043D8003B69134403F510631B6803F00043B3F112
:1043E800004F40F086803B681B785A013B691344B4
:1043F80003F510631B683A68127851013A690A4458
:1044080002F5106243F0006313603B681B785A01A1
:104418003B69134403F510631B683A68127851012D
:104428003A690A4402F5106243F080431360FB685E
:104438000133FB60FB6842F21072934202D90123F8
:10444800FB7556E03B681B785A013B69134403F53A
:1044580010631B6803F00043B3F1004FE7D048E056
:104468003B681B785A013B69134403F530631B68AA
:1044780003F00043B3F1004F3BD13B681B785A016E
:104488003B69134403F530631B683A68127851019D
:104498003A690A4402F5306243F0006313603B68EE
:1044A8001B785A013B69134403F530631B683A686B
:1044B800127851013A690A4402F5306243F08043A8
:1044C8001360FB680133FB60FB6842F21072934291
:1044D80002D90123FB750CE03B681B785A013B6944
:1044E800134403F530631B6803F00043B3F1004F36
:1044F800E7D0FB7D18461C37BD465DF8047B704746
:1045080080B489B000AFF860B96011461A460B460E
:10451800FB711346BB80FB687B61BB68FB6197F846
:104528002830002B23D1BB8803339B083B61002331
:10453800BB6118E0FB791A037B69134403F58053C8
:104548001A46FB691B681360FB690133FB61FB6951
:104558000133FB61FB690133FB61FB690133FB61DB
:10456800BB690133BB61BA693B699A42E2D3002354
:1045780018462437BD465DF8047B704780B48BB07D
:1045880000AFF860B9601346FB80FB68BB61BB688D
:104598007B62FB889B089BB27B61FB8803F003036B
:1045A800FB8300233B6214E0BB6903F580531A6860
:1045B8007B6A1A607B6A01337B627B6A01337B62A8
:1045C8007B6A01337B627B6A01337B623B6A01331E
:1045D8003B623A6A7B699A42E6D3FB8B002B1ED07A
:1045E80000233B62BB6903F580531A4607F11003A9
:1045F80012681A603A693B6ADBB2DB0022FA03F3FD
:10460800DAB27B6A1A703B6A01333B627B6A013318
:104618007B62FB8B013BFB83FB8B002BEAD17B6A24
:1046280018462C37BD465DF8047B704780B485B0CA
:1046380000AF786039607B68FB603B681B78BB60C3
:104648003B685B78012B2CD1BB685A01FB6813448B
:1046580003F510631B68002B12DBBB68002B0FD01F
:10466800BB685A01FB68134403F510631B68BA68FA
:104678005101FA680A4402F5106223F0804313607E
:10468800BB685A01FB68134403F510631B68BA68DA
:104698005101FA680A4402F5106243F400131360EA
:1046A8002BE0BB685A01FB68134403F530631B68B1
:1046B800002B12DBBB68002B0FD0BB685A01FB68CC
:1046C800134403F530631B68BA685101FA680A4459
:1046D80002F5306223F080431360BB685A01FB681F
:1046E800134403F530631B68BA685101FA680A4439
:1046F80002F5306243F400131360002318461437A0
:10470800BD465DF8047B704780B485B000AF786023
:1047180039607B68FB603B681B78BB603B685B78F3
:10472800012B28D1BB685A01FB68134403F51063B9
:104738001B68BA685101FA680A4402F5106223F44A
:10474800001313603B681B79032B03D03B681B796C
:10475800022B38D1BB685A01FB68134403F5106378
:104768001B68BA685101FA680A4402F5106243F0FE
:104778008053136027E0BB685A01FB68134403F5B4
:1047880030631B68BA685101FA680A4402F530625E
:1047980023F4001313603B681B79032B03D03B6899
:1047A8001B79022B0FD1BB685A01FB68134403F530
:1047B80030631B68BA685101FA680A4402F530622E
:1047C80043F080531360002318461437BD465DF844
:1047D800047B704780B485B000AF78600B46FB70EF
:1047E8007B68FB60FB6803F500631B68FA6802F5E9
:1047F800006223F4FE631360FB6803F500631A6824
:10480800FB781B0103F4FE63F96801F500611343AB
:104818000B60002318461437BD465DF8047B7047CB
:1048280080B485B000AF78607B68FB60FB6803F5F7
:1048380060631B68FA6802F5606223F00303136083
:10484800FB6803F500635B68FA6802F5006223F011
:1048580002035360002318461437BD465DF8047BF5
:10486800704780B485B000AF78607B68FB60FB68F8
:1048780003F560631B68FA6802F5606223F00303BE
:104888001360FB6803F500635B68FA6802F5006271
:1048980043F002035360002318461437BD465DF801
:1048A800047B704780B485B000AF78607B685B6933
:1048B800FB607B689B69FA681340FB60FB681846DD
:1048C8001437BD465DF8047B704780B485B000AFEF
:1048D80078607B68FB60FB6803F500639B69BB60DD
:1048E800FB6803F50063DB69BA681340BB60BB680B
:1048F8001B0C18461437BD465DF8047B704780B41E
:1049080085B000AF78607B68FB60FB6803F50063E7
:104918009B69BB60FB6803F50063DB69BA681340F9
:10492800BB60BB689BB218461437BD465DF8047B74
:10493800704780B485B000AF78600B46FB707B6829
:10494800FB60FB785A01FB68134403F530639B68EE
:10495800BB60FB6803F500635B69BA681340BB6022
:10496800BB6818461437BD465DF8047B704780B4B1
:1049780087B000AF78600B46FB707B687B617B6912
:1049880003F500631B693B617B6903F500635B6B9F
:10499800FB60FB7803F00F03FA6822FA03F3DB01EC
:1049A800DBB23A6913433B61FB785A017B691344D4
:1049B80003F510639B683A691340BB60BB681846EF
:1049C8001C37BD465DF8047B704780B483B000AFE8
:1049D80078607B685B6903F0010318460C37BD46B5
:1049E8005DF8047B704780B485B000AF78607B6861
:1049F800FB60FB6803F510631B68FA6802F5106238
:104A080023F4FF6323F007031360FB6803F50063D7
:104A18005B68FA6802F5006243F480735360002310
:104A280018461437BD465DF8047B704780B487B0DC
:104A380000AFF8600B467A60FB72FB687B61FB682D
:104A48003C3304331B683B613B69264A93420AD9CD
:104A58007B6903F530631B6803F00043B3F1004F33
:104A680001D1002337E07B6903F530631A46002340
:104A780013617B6903F530631B697A6902F530625B
:104A880043F4002313617B6903F530631B697A697A
:104A980002F5306243F0180313617B6903F5306354
:104AA8001B697A6902F5306243F0C0431361FB7AEF
:104AB800012B0FD17B6903F530631A467B6853617C
:104AC8007B6903F530631B687A6902F5306243F04D
:104AD80080231360002318461C37BD465DF8047B0D
:104AE800704700BF0A30544F80B485B000AF78607B
:104AF8000023FB60FB680133FB60FB68134A9342A9
:104B080001D903231BE07B681B69002BF2DA002321
:104B1800FB607B681B6943F001027B681A61FB68D4
:104B28000133FB60FB68094A934201D9032306E07D
:104B38007B681B6903F00103012BF0D000231846A2
:104B48001437BD465DF8047B704700BF400D030075
:104B580080B584B000AF78600B46FB704FF40770E7
:104B680002F094FCF860FB68002B09D17B68D3F84D
:104B7800D4227B68B032002143F822100223D4E00B
:104B88004FF407720021F86802F0E8FC7B68D3F85C
:104B9800D4227B68B032F96843F822107B68D3F8D6
:104BA800D4227B68B03253F822207B68C3F8BC2239
:104BB8007B681B7C002B38D15E4B19784FF400734F
:104BC8000222786802F03FFB5A4B1B7803F00F0271
:104BD800796813469B0013449B000B44243301223D
:104BE8001A80554B19784FF400730222786802F046
:104BF8002AFB514B1B7803F00F02796813469B0080
:104C080013449B000B4403F5B27301221A804B4BEB
:104C18001B7803F00F02796813469B0013449B002E
:104C28000B44263310221A8035E0424B1978402372
:104C38000222786802F007FB3E4B1B7803F00F0254
:104C4800796813469B0013449B000B4424330122CC
:104C58001A80394B197840230222786802F0F3FA57
:104C6800354B1B7803F00F02796813469B001344F9
:104C78009B000B4403F5B27301221A802F4B1B785B
:104C880003F00F02796813469B0013449B000B4402
:104C9800263310221A80294B1978082303227868B2
:104CA80002F0D1FA254B1B7803F00F0279681346FE
:104CB8009B0013449B000B44243301221A80FB6899
:104CC8000022C3F804227B68D3F8D4327A68B03360
:104CD8009B0013445B681B689847FB680022C3F875
:104CE8001422FB680022C3F81822FB68D3F80432A8
:104CF800002B01D1022318E07B681B7C002B0AD112
:104D08000D4B1978FB68D3F804224FF400737868C8
:104D180002F088FB08E0084B1978FB68D3F80422F6
:104D28004023786802F07EFB002318461037BD4602
:104D380080BD00BF97000020980000209900002047
:104D480080B582B000AF78600B46FB703A4B1B7899
:104D58001946786802F09DFA374B1B7803F00F026A
:104D6800796813469B0013449B000B4424330022AC
:104D78001A80324B1B781946786802F08AFA2F4B52
:104D88001B7803F00F02796813469B0013449B00BD
:104D98000B4403F5B27300221A80294B1B7819467D
:104DA800786802F076FA264B1B7803F00F027968D0
:104DB80013469B0013449B000B44243300221A80A3
:104DC8001F4B1B7803F00F02796813469B001344AE
:104DD8009B000B44263300221A807B68D3F8D42228
:104DE8007B68B03253F82230002B1FD07B68D3F891
:104DF800D4327A68B0339B0013445B685B68984789
:104E08007B68D3F8D4227B68B03253F82230184636
:104E180002F04AFB7B68D3F8D4227B68B0320021C9
:104E280043F822107B680022C3F8BC2200231846EE
:104E38000837BD4680BD00BF9700002098000020BD
:104E48009900002080B586B000AF786039607B6833
:104E5800D3F8D4227B68B03253F822303B61002368
:104E68007B7300237B810023FB753B69002B01D1F9
:104E78000323BFE03B681B7803F06003002B50D08E
:104E8800202B40F0AF803B68DB88002B3AD03B6892
:104E98001B785BB2002B1BDA7B68D3F8D4327A68B4
:104EA800B0339B0013445B689B683A685078396953
:104EB8003A68D28898473B68DB88072B28BF0723C6
:104EC800FB813B69FA891946786801F089FD90E011
:104ED8003B685A783B6983F800223B68DB883F2BA4
:104EE80003D83B68DB88DAB200E040223B6983F8EC
:104EF800012239693B6993F801321A46786801F052
:104F08009BFD76E07B68D3F8D4327A68B0339B0097
:104F180013445B689B683A68507800223968984760
:104F280067E03B685B780B2B51D801A252F823F05D
:104F3800694F0008E54F0008D74F0008D74F000811
:104F4800D74F0008D74F0008D74F0008D74F0008A1
:104F5800D74F0008D74F0008934F0008BD4F0008EF
:104F68007B6893F89C32DBB2032B07D107F10A0365
:104F780002221946786801F033FD32E03968786812
:104F880001F0BDFC0323FB752BE07B6893F89C3292
:104F9800DBB2032B07D107F10D030122194678680C
:104FA80001F01EFD1DE03968786801F0A8FC0323B4
:104FB800FB7516E07B6893F89C32DBB2032B0FD0AD
:104FC8003968786801F09BFC0323FB7508E03968B1
:104FD800786801F094FC0323FB7502E000BF08E049
:104FE80000BF06E03968786801F089FC0323FB7587
:104FF80000BFFB7D18461837BD4680BD80B584B01C
:1050080000AF78600B46FB707B68D3F8C832FB6052
:105018007B68D3F8D4227B68B03253F82230002B57
:1050280001D1032365E07B68D3F8D4227B68B032D2
:1050380053F82230BB60FB7803F00F0279681346FF
:105048009B0013449B000B4418331B68002B2FD084
:10505800FB7803F00F02796813469B0013449B000A
:105068000B4418331A68FB7803F00F01F8680B46F5
:10507800DB000B449B00034448331B68B2FBF3F18D
:1050880001FB03F3D31A002B12D1FB7803F00F02B4
:10509800796813469B0013449B000B441833002285
:1050A8001A60F97800230022786802F09AF91FE064
:1050B800BB680022C3F814227B68D3F8D4327A681C
:1050C800B0339B0013445B681B69002B10D07B68CE
:1050D800D3F8D4327A68B0339B0013445B681B69F9
:1050E800BA68D2F80802BA6802F50471FA789847E3
:1050F800002318461037BD4680BD80B584B000AF88
:1051080078600B46FB707B68D3F8D4227B68B0329A
:1051180053F82230FB607B68D3F8D4227B68B03226
:1051280053F82230002B01D103231AE0FB781946EB
:10513800786802F098F90246FB68C3F80C227B688D
:10514800D3F8D4327A68B0339B0013445B68DB68C9
:10515800FA68D2F80402FA6802F503721146984711
:10516800002318461037BD4680BD80B584B000AF17
:1051780078607B68D3F8D4227B68B03253F8223049
:10518800FB60FB68002B01D1032325E07B68D3F883
:10519800D4327A68B0339B0013445B68002B1AD072
:1051A800FB6893F80032FF2B15D07B68D3F8D43214
:1051B8007A68B0339B0013445B689B68FA6892F87E
:1051C8000002F968FA6892F8012292B29847FB68DF
:1051D800FF2283F80022002318461037BD4680BD01
:1051E80080B586B000AF78608221184800F04FFD86
:1051F80078610121154800F04AFD38618121134882
:1052080000F045FDF8607B69002B02D07B69102215
:105218009A713B69002B06D03B69002242F040029C
:105228001A7100225A71FB68002B06D0FB68002215
:1052380042F040021A7100225A717B6843221A8098
:10524800024B18461837BD4680BD00BF54000020E9
:1052580080B586B000AF78608221184800F017FD4D
:1052680078610121154800F012FD38618121134849
:1052780000F00DFDF8607B69002B02D07B691022DD
:105288009A713B69002B06D03B6900221A710022F3
:1052980042F002025A71FB68002B06D0FB6800221C
:1052A8001A71002242F002025A717B6843221A8066
:1052B800024B18461837BD4680BD00BF5400002079
:1052C80080B586B000AF78608221184800F0DFFC16
:1052D80078610121154800F0DAFC38618121134812
:1052E80000F0D5FCF8607B69002B02D07B691022A6
:1052F8009A713B69002B06D03B69002242F04002BC
:105308001A7100225A71FB68002B06D0FB68002234
:1053180042F040021A7100225A717B6843221A80B7
:10532800024B18461837BD4680BD00BF5400002008
:1053380080B483B000AF78607B680A221A80034B80
:1053480018460C37BD465DF8047B704710000020F6
:1053580080B483B000AF786039603B68002B01D11E
:10536800032309E07B68D3F8D4327A68B0339B0012
:1053780013443A685A60002318460C37BD465DF856
:10538800047B704780B487B000AFF860B9607A607A
:10539800FB68D3F8D422FB68B03253F822307B6123
:1053A8007B69002B01D1032308E07B69BA68C3F845
:1053B80008227B697A68C3F81022002318461C3734
:1053C800BD465DF8047B704780B485B000AF786057
:1053D80039607B68D3F8D4227B68B03253F8223026
:1053E800FB60FB68002B01D1032304E0FB683A68EB
:1053F800C3F80422002318461437BD465DF8047B21
:105408007047000080B584B000AF78607B68D3F83F
:10541800D4227B68B03253F82230BB600123FB737F
:105428007B68D3F8D4227B68B03253F82230002B43
:1054380001D1032325E0BB68D3F81432002B1FD118
:10544800BB680122C3F81422104B1B7803F00F022B
:10545800BB68D3F81012786813469B0013449B006E
:10546800034418331960094B1978BB68D3F808222C
:10547800BB68D3F81032786801F0B3FF0023FB73E0
:10548800FB7B18461037BD4680BD00BF9700002043
:1054980080B584B000AF78607B68D3F8D4227B688D
:1054A800B03253F82230FB607B68D3F8D4227B6893
:1054B800B03253F82230002B01D1032318E07B6867
:1054C8001B7C002B0AD10C4B1978FB68D3F80422FB
:1054D8004FF40073786801F0A5FF08E0064B1978CF
:1054E800FB68D3F804224023786801F09BFF00236F
:1054F80018461037BD4680BD9800002080B586B09C
:1055080000AFF860B9601346FB71FB68002B01D14E
:1055180003231FE0FB680022C3F8B822FB680022BF
:10552800C3F8C422FB680022C3F8D022BB68002B52
:1055380003D0FB68BA68C3F8B422FB68012283F879
:105548009C22FB68FA791A70F86801F015FE034688
:10555800FB75FB7D18461837BD4680BD80B584B005
:1055680000AF786039600023FB813B68002B01D1D4
:10557800032325E07B683A68C3F8B8227B68D3F830
:10558800D4227B68AE3253F82230DB6A002B0FD06E
:105598007B68D3F8D4227B68AE3253F82230DB6ABA
:1055A80007F10E021046984702467B68C3F8D022DE
:1055B8007B68D3F8D8325A1C7B68C3F8D8220023FA
:1055C80018461037BD4680BD80B582B000AF786000
:1055D800786801F01DFE034618460837BD4680BDB1
:1055E80080B483B000AF7860002318460C37BD46FE
:1055F8005DF8047B704780B584B000AF78600B46D7
:10560800FB700023FB737B68D3F8B832002B09D0FA
:105618007B68D3F8B8321B68FA78114678689847DF
:105628000346FB73FB7B18461037BD4680BD80B52B
:1056380084B000AF78600B46FB700023FB737B6877
:10564800D3F8B8325B68FA78114678689847034609
:10565800002B01D00323FB73FB7B18461037BD4694
:1056680080BD80B584B000AF786039607B6803F294
:10567800AA233968184601F008F97B680122C3F8A3
:1056880094227B68B3F8B0321A467B68C3F8982234
:105698007B6893F8AA3203F01F03022B1AD0022B5F
:1056A80022D8002B02D0012B0AD01DE07B6803F220
:1056B800AA231946786800F05FFB0346FB7320E0D5
:1056C8007B6803F2AA231946786800F0C7FB0346F3
:1056D800FB7316E07B6803F2AA231946786800F08A
:1056E80029FC0346FB730CE07B6893F8AA3223F08D
:1056F8007F03DBB21946786801F0EAFD0346FB73C5
:1057080000BFFB7B18461037BD4680BD80B586B00C
:1057180000AFF8600B467A60FB720023FB75FB7ADA
:10572800002B6ED1FB6803F5AA733B61FB68D3F8C5
:105738009432032B40F098803B699A683B69DB6898
:105748009A4213D93B699A683B69DB68D21A3B696C
:105758009A603B69DA683B699B68934228BF1346A5
:105768001A467968F86801F084F97DE0FB6893F8D7
:10577800AA3203F01F03022B14D0022B1DD8002BD2
:1057880002D0012B03D018E00023BB7518E0FB689A
:10579800B3F8AE32DBB21946F86800F05EFA034699
:1057A800BB750DE0FB68B3F8AE32DBB21946F8689A
:1057B80000F060FA0346BB7502E00023BB7500BF2A
:1057C800BB7D002B19D1FB6893F89C32DBB2032B0D
:1057D80013D1BA7DFB68AE3253F822301B69002B17
:1057E8000BD0BA7DFB68C3F8D422BA7DFB68AE3211
:1057F80053F822301B69F8689847F86801F04AF9AD
:1058080032E0FB7A03F07F03DBB21946F86800F058
:1058180031FA0346BB75BB7DFF2B25D0BB7D002B22
:1058280022D1FB6893F89C32DBB2032B17D1BA7DE7
:10583800FB68AE3253F822309B69002B0FD0BA7D3B
:10584800FB68C3F8D422BA7DFB68AE3253F8223025
:105858009B69FA7A1146F86898470346FB75FB7D01
:10586800002B01D0FB7D00E0002318461837BD4609
:1058780080BD80B586B000AFF8600B467A60FB72D9
:10588800FB7A002B6FD1FB6814333B61FB68D3F8BC
:105898009432022B5AD13B699A683B69DB689A4279
:1058A80014D93B699A683B69DB68D21A3B699A60EC
:1058B8003B699B681A467968F86801F0ACF80023E0
:1058C80000220021F86801F0ADFD3FE03B69DA688D
:1058D8003B699B689A421CD13B695A683B69DB6803
:1058E8009A4216D33B695A68FB68D3F898329A42B1
:1058F8000FD200220021F86801F08DF8FB68002221
:10590800C3F89822002300220021F86801F08AFDDC
:105918001CE0FB6893F89C32DBB2032B0FD1FB68C9
:10592800D3F8B832DB68002B09D0FB680022C3F833
:10593800D422FB68D3F8B832DB68F868984780212E
:10594800F86801F0C5FCF86801F0B7F8FB6893F84F
:10595800A032002B3AD0F868FFF742FEFB6800221D
:1059680083F8A02232E0FB7A63F07F03DBB21946AA
:10597800F86800F07FF90346FB75FB7DFF2B25D007
:10598800FB7D002B22D1FB6893F89C32DBB2032B02
:105998001CD1FA7DFB68AE3253F822305B69002BCC
:1059A80014D0FA7DFB68C3F8D422FA7DFB68AE32C6
:1059B80053F822305B69FA7A1146F868984703462B
:1059C800BB75BB7D002B01D0BB7D00E000231846D2
:1059D8001837BD4680BD80B584B000AF786000231D
:1059E800FB737B68012283F89C227B680022C3F842
:1059F80094227B6800225A607B680022C3F8A422A4
:105A08007B68002283F8A0227B68D3F8B832002B89
:105A180014D07B68D3F8B8325B68002B0ED07B6853
:105A2800D3F8B8325B687A685268D2B2114678689F
:105A380098470346002B01D00323FB734023002221
:105A48000021786801F0FFFB7B680122A3F864213C
:105A58007B684022C3F860214023002280217868B7
:105A680001F0F1FB7B6801229A847B6840221A626C
:105A7800FB7B18461037BD4680BD80B483B000AFAD
:105A880078600B46FB707B68FA781A740023184616
:105A98000C37BD465DF8047B704780B483B000AF17
:105AA80078607B6893F89C32DAB27B6883F89D2231
:105AB8007B68042283F89C22002318460C37BD46D5
:105AC8005DF8047B704780B483B000AF78607B6872
